{"abi":[{"type":"constructor","inputs":[{"name":"_owner","type":"address","internalType":"address"},{"name":"_coins","type":"address[3]","internalType":"address[3]"},{"name":"_pool_token","type":"address","internalType":"address"},{"name":"_initialA","type":"uint256","internalType":"uint256"},{"name":"_fee","type":"uint256","internalType":"uint256"},{"name":"_admin_fee","type":"uint256","internalType":"uint256"}],"stateMutability":"nonpayable"},{"type":"function","name":"A","inputs":[],"outputs":[{"name":"","type":"uint256","internalType":"uint256"}],"stateMutability":"view"},{"type":"function","name":"ADMIN_ACTIONS_DELAY","inputs":[],"outputs":[{"name":"","type":"uint256","internalType":"uint256"}],"stateMutability":"view"},{"type":"function","name":"FEE_DENOMINATOR","inputs":[],"outputs":[{"name":"","type":"uint256","internalType":"uint256"}],"stateMutability":"view"},{"type":"function","name":"LENDING_PRECISION","inputs":[],"outputs":[{"name":"","type":"uint256","internalType":"uint256"}],"stateMutability":"view"},{"type":"function","name":"MAX_A","inputs":[],"outputs":[{"name":"","type":"uint256","internalType":"uint256"}],"stateMutability":"view"},{"type":"function","name":"MAX_ADMIN_FEE","inputs":[],"outputs":[{"name":"","type":"uint256","internalType":"uint256"}],"stateMutability":"view"},{"type":"function","name":"MAX_A_CHANGE","inputs":[],"outputs":[{"name":"","type":"uint256","internalType":"uint256"}],"stateMutability":"view"},{"type":"function","name":"MAX_FEE","inputs":[],"outputs":[{"name":"","type":"uint256","internalType":"uint256"}],"stateMutability":"view"},{"type":"function","name":"MIN_RAMP_TIME","inputs":[],"outputs":[{"name":"","type":"uint256","internalType":"uint256"}],"stateMutability":"view"},{"type":"function","name":"N_COINS","inputs":[],"outputs":[{"name":"","type":"uint256","internalType":"uint256"}],"stateMutability":"view"},{"type":"function","name":"PRECISION","inputs":[],"outputs":[{"name":"","type":"uint256","internalType":"uint256"}],"stateMutability":"view"},{"type":"function","name":"add_liquidity","inputs":[{"name":"amounts","type":"uint256[3]","internalType":"uint256[3]"},{"name":"min_mint_amount","type":"uint256","internalType":"uint256"}],"outputs":[],"stateMutability":"nonpayable"},{"type":"function","name":"admin_actions_deadline","inputs":[],"outputs":[{"name":"","type":"uint256","internalType":"uint256"}],"stateMutability":"view"},{"type":"function","name":"admin_balances","inputs":[{"name":"i","type":"uint256","internalType":"uint256"}],"outputs":[{"name":"","type":"uint256","internalType":"uint256"}],"stateMutability":"view"},{"type":"function","name":"admin_fee","inputs":[],"outputs":[{"name":"","type":"uint256","internalType":"uint256"}],"stateMutability":"view"},{"type":"function","name":"apply_new_fee","inputs":[],"outputs":[],"stateMutability":"nonpayable"},{"type":"function","name":"balances","inputs":[{"name":"","type":"uint256","internalType":"uint256"}],"outputs":[{"name":"","type":"uint256","internalType":"uint256"}],"stateMutability":"view"},{"type":"function","name":"calc_token_amount","inputs":[{"name":"amounts","type":"uint256[3]","internalType":"uint256[3]"},{"name":"deposit","type":"bool","internalType":"bool"}],"outputs":[{"name":"","type":"uint256","internalType":"uint256"}],"stateMutability":"view"},{"type":"function","name":"coins","inputs":[{"name":"","type":"uint256","internalType":"uint256"}],"outputs":[{"name":"","type":"address","internalType":"address"}],"stateMutability":"view"},{"type":"function","name":"commit_new_fee","inputs":[{"name":"new_fee","type":"uint256","internalType":"uint256"},{"name":"new_admin_fee","type":"uint256","internalType":"uint256"}],"outputs":[],"stateMutability":"nonpayable"},{"type":"function","name":"exchange","inputs":[{"name":"i","type":"uint256","internalType":"uint256"},{"name":"j","type":"uint256","internalType":"uint256"},{"name":"dx","type":"uint256","internalType":"uint256"},{"name":"min_dy","type":"uint256","internalType":"uint256"}],"outputs":[],"stateMutability":"nonpayable"},{"type":"function","name":"fee","inputs":[],"outputs":[{"name":"","type":"uint256","internalType":"uint256"}],"stateMutability":"view"},{"type":"function","name":"future_A","inputs":[],"outputs":[{"name":"","type":"uint256","internalType":"uint256"}],"stateMutability":"view"},{"type":"function","name":"future_A_time","inputs":[],"outputs":[{"name":"","type":"uint256","internalType":"uint256"}],"stateMutability":"view"},{"type":"function","name":"future_admin_fee","inputs":[],"outputs":[{"name":"","type":"uint256","internalType":"uint256"}],"stateMutability":"view"},{"type":"function","name":"future_fee","inputs":[],"outputs":[{"name":"","type":"uint256","internalType":"uint256"}],"stateMutability":"view"},{"type":"function","name":"get_dy","inputs":[{"name":"i","type":"uint256","internalType":"uint256"},{"name":"j","type":"uint256","internalType":"uint256"},{"name":"dx","type":"uint256","internalType":"uint256"}],"outputs":[{"name":"","type":"uint256","internalType":"uint256"}],"stateMutability":"view"},{"type":"function","name":"get_virtual_price","inputs":[],"outputs":[{"name":"","type":"uint256","internalType":"uint256"}],"stateMutability":"view"},{"type":"function","name":"initial_A","inputs":[],"outputs":[{"name":"","type":"uint256","internalType":"uint256"}],"stateMutability":"view"},{"type":"function","name":"initial_A_time","inputs":[],"outputs":[{"name":"","type":"uint256","internalType":"uint256"}],"stateMutability":"view"},{"type":"function","name":"is_killed","inputs":[],"outputs":[{"name":"","type":"bool","internalType":"bool"}],"stateMutability":"view"},{"type":"function","name":"kill_me","inputs":[],"outputs":[],"stateMutability":"nonpayable"},{"type":"function","name":"owner","inputs":[],"outputs":[{"name":"","type":"address","internalType":"address"}],"stateMutability":"view"},{"type":"function","name":"ramp_A","inputs":[{"name":"_future_A","type":"uint256","internalType":"uint256"},{"name":"_future_time","type":"uint256","internalType":"uint256"}],"outputs":[],"stateMutability":"nonpayable"},{"type":"function","name":"remove_liquidity","inputs":[{"name":"_amount","type":"uint256","internalType":"uint256"},{"name":"min_amounts","type":"uint256[3]","internalType":"uint256[3]"}],"outputs":[],"stateMutability":"nonpayable"},{"type":"function","name":"stop_ramp_A","inputs":[],"outputs":[],"stateMutability":"nonpayable"},{"type":"function","name":"token","inputs":[],"outputs":[{"name":"","type":"address","internalType":"contract ICurveToken"}],"stateMutability":"view"},{"type":"function","name":"unkill_me","inputs":[],"outputs":[],"stateMutability":"nonpayable"},{"type":"function","name":"withdraw_admin_fees","inputs":[],"outputs":[],"stateMutability":"nonpayable"},{"type":"event","name":"AddLiquidity","inputs":[{"name":"provider","type":"address","indexed":true,"internalType":"address"},{"name":"token_amounts","type":"uint256[3]","indexed":false,"internalType":"uint256[3]"},{"name":"fees","type":"uint256[3]","indexed":false,"internalType":"uint256[3]"},{"name":"invariant","type":"uint256","indexed":false,"internalType":"uint256"},{"name":"token_supply","type":"uint256","indexed":false,"internalType":"uint256"}],"anonymous":false},{"type":"event","name":"CommitNewFee","inputs":[{"name":"deadline","type":"uint256","indexed":false,"internalType":"uint256"},{"name":"fee","type":"uint256","indexed":false,"internalType":"uint256"},{"name":"admin_fee","type":"uint256","indexed":false,"internalType":"uint256"}],"anonymous":false},{"type":"event","name":"NewFee","inputs":[{"name":"fee","type":"uint256","indexed":false,"internalType":"uint256"},{"name":"admin_fee","type":"uint256","indexed":false,"internalType":"uint256"}],"anonymous":false},{"type":"event","name":"RampA","inputs":[{"name":"old_A","type":"uint256","indexed":false,"internalType":"uint256"},{"name":"new_A","type":"uint256","indexed":false,"internalType":"uint256"},{"name":"initial_time","type":"uint256","indexed":false,"internalType":"uint256"},{"name":"future_time","type":"uint256","indexed":false,"internalType":"uint256"}],"anonymous":false},{"type":"event","name":"RemoveLiquidity","inputs":[{"name":"provider","type":"address","indexed":true,"internalType":"address"},{"name":"token_amounts","type":"uint256[3]","indexed":false,"internalType":"uint256[3]"},{"name":"fees","type":"uint256[3]","indexed":false,"internalType":"uint256[3]"},{"name":"token_supply","type":"uint256","indexed":false,"internalType":"uint256"}],"anonymous":false},{"type":"event","name":"RemoveLiquidityImbalance","inputs":[{"name":"provider","type":"address","indexed":true,"internalType":"address"},{"name":"token_amounts","type":"uint256[3]","indexed":false,"internalType":"uint256[3]"},{"name":"fees","type":"uint256[3]","indexed":false,"internalType":"uint256[3]"},{"name":"invariant","type":"uint256","indexed":false,"internalType":"uint256"},{"name":"token_supply","type":"uint256","indexed":false,"internalType":"uint256"}],"anonymous":false},{"type":"event","name":"RemoveLiquidityOne","inputs":[{"name":"provider","type":"address","indexed":true,"internalType":"address"},{"name":"token_amount","type":"uint256","indexed":false,"internalType":"uint256"},{"name":"coin_amount","type":"uint256","indexed":false,"internalType":"uint256"}],"anonymous":false},{"type":"event","name":"StopRampA","inputs":[{"name":"A","type":"uint256","indexed":false,"internalType":"uint256"},{"name":"t","type":"uint256","indexed":false,"internalType":"uint256"}],"anonymous":false},{"type":"event","name":"TokenExchange","inputs":[{"name":"buyer","type":"address","indexed":true,"internalType":"address"},{"name":"sold_id","type":"uint256","indexed":false,"internalType":"uint256"},{"name":"tokens_sold","type":"uint256","indexed":false,"internalType":"uint256"},{"name":"bought_id","type":"uint256","indexed":false,"internalType":"uint256"},{"name":"tokens_bought","type":"uint256","indexed":false,"internalType":"uint256"}],"anonymous":false},{"type":"error","name":"CurveV1Pool_AChangeTooLarge","inputs":[]},{"type":"error","name":"CurveV1Pool_ActiveAction","inputs":[]},{"type":"error","name":"CurveV1Pool_AdminFeeTooHigh","inputs":[]},{"type":"error","name":"CurveV1Pool_D1MustBeGreaterThanD0","inputs":[]},{"type":"error","name":"CurveV1Pool_FeeTooHigh","inputs":[]},{"type":"error","name":"CurveV1Pool_InitialDepositRequiresAllCoins","inputs":[]},{"type":"error","name":"CurveV1Pool_InsufficientOutputAmount","inputs":[]},{"type":"error","name":"CurveV1Pool_InsufficientTime","inputs":[]},{"type":"error","name":"CurveV1Pool_InvalidAParameter","inputs":[]},{"type":"error","name":"CurveV1Pool_InvalidCoinAddress","inputs":[]},{"type":"error","name":"CurveV1Pool_InvalidIndex","inputs":[{"name":"index","type":"uint256","internalType":"uint256"}]},{"type":"error","name":"CurveV1Pool_InvalidPoolToken","inputs":[]},{"type":"error","name":"CurveV1Pool_InvalidTokenIndex","inputs":[]},{"type":"error","name":"CurveV1Pool_NoActiveAction","inputs":[]},{"type":"error","name":"CurveV1Pool_OnlyOwner","inputs":[]},{"type":"error","name":"CurveV1Pool_PoolIsKilled","inputs":[]},{"type":"error","name":"CurveV1Pool_SameCoin","inputs":[]},{"type":"error","name":"CurveV1Pool_SlippageTooHigh","inputs":[]},{"type":"error","name":"CurveV1Pool_TooEarly","inputs":[]},{"type":"error","name":"CurveV1Pool_TooFrequent","inputs":[]},{"type":"error","name":"CurveV1Pool_ZeroAmount","inputs":[]},{"type":"error","name":"ReentrancyGuardReentrantCall","inputs":[]},{"type":"error","name":"SafeERC20FailedOperation","inputs":[{"name":"token","type":"address","internalType":"address"}]}],"bytecode":{"object":"0x608060405234801562000010575f80fd5b5060405162003e3938038062003e39833981810160405281019062000036919062000579565b60015f819055505f5b6003811015620000df575f73ffffffffffffffffffffffffffffffffffffffff1686826003811062000076576200007562000612565b5b602002015173ffffffffffffffffffffffffffffffffffffffff1603620000c9576040517f6dad5d0200000000000000000000000000000000000000000000000000000000815260040160405180910390fd5b8080620000d6906200066c565b9150506200003f565b505f73ffffffffffffffffffffffffffffffffffffffff168473ffffffffffffffffffffffffffffffffffffffff160362000146576040517f260b804900000000000000000000000000000000000000000000000000000000815260040160405180910390fd5b5f83111580620001595750620f42408310155b1562000191576040517f4b1ed65d00000000000000000000000000000000000000000000000000000000815260040160405180910390fd5b64012a05f200821115620001d1576040517f74ad7ab800000000000000000000000000000000000000000000000000000000815260040160405180910390fd5b6402540be40081111562000211576040517f74c8041900000000000000000000000000000000000000000000000000000000815260040160405180910390fd5b84600190600362000224929190620002db565b5082600b8190555082600c8190555042600d8190555042600e8190555081600781905550806008819055508560095f6101000a81548173ffffffffffffffffffffffffffffffffffffffff021916908373ffffffffffffffffffffffffffffffffffffffff16021790555083600a5f6101000a81548173ffffffffffffffffffffffffffffffffffffffff021916908373ffffffffffffffffffffffffffffffffffffffff160217905550505050505050620006b8565b826003810192821562000349579160200282015b8281111562000348578251825f6101000a81548173ffffffffffffffffffffffffffffffffffffffff021916908373ffffffffffffffffffffffffffffffffffffffff16021790555091602001919060010190620002ef565b5b5090506200035891906200035c565b5090565b5b8082111562000375575f815f9055506001016200035d565b5090565b5f604051905090565b5f80fd5b5f73ffffffffffffffffffffffffffffffffffffffff82169050919050565b5f620003b18262000386565b9050919050565b620003c381620003a5565b8114620003ce575f80fd5b50565b5f81519050620003e181620003b8565b92915050565b5f80fd5b5f601f19601f8301169050919050565b7f4e487b71000000000000000000000000000000000000000000000000000000005f52604160045260245ffd5b6200043382620003eb565b810181811067ffffffffffffffff82111715620004555762000454620003fb565b5b80604052505050565b5f6200046962000379565b905062000477828262000428565b919050565b5f67ffffffffffffffff821115620004995762000498620003fb565b5b602082029050919050565b5f80fd5b5f620004be620004b8846200047c565b6200045e565b90508060208402830185811115620004db57620004da620004a4565b5b835b81811015620005085780620004f38882620003d1565b845260208401935050602081019050620004dd565b5050509392505050565b5f82601f830112620005295762000528620003e7565b5b600362000538848285620004a8565b91505092915050565b5f819050919050565b620005558162000541565b811462000560575f80fd5b50565b5f8151905062000573816200054a565b92915050565b5f805f805f80610100878903121562000597576200059662000382565b5b5f620005a689828a01620003d1565b9650506020620005b989828a0162000512565b9550506080620005cc89828a01620003d1565b94505060a0620005df89828a0162000563565b93505060c0620005f289828a0162000563565b92505060e06200060589828a0162000563565b9150509295509295509295565b7f4e487b71000000000000000000000000000000000000000000000000000000005f52603260045260245ffd5b7f4e487b71000000000000000000000000000000000000000000000000000000005f52601160045260245ffd5b5f620006788262000541565b91507fffffffffffffffffffffffffffffffffffffffffffffffffffffffffffffffff8203620006ad57620006ac6200063f565b5b600182019050919050565b61377380620006c65f395ff3fe608060405234801561000f575f80fd5b506004361061023b575f3560e01c80638da5cb5b11610139578063ddca3f43116100b6578063ecb586a51161007a578063ecb586a514610629578063f3de036214610645578063f446c1d014610663578063fc0c546a14610681578063fee3f7f91461069f5761023b565b8063ddca3f4314610595578063e2e7d264146105b3578063e3698853146105e3578063e3824462146105ed578063e5d9e9031461060b5761023b565b8063b69009dc116100fd578063b69009dc146104ed578063bb7b8b801461050b578063bc063e1a14610529578063c661065714610547578063d73792a9146105775761023b565b80638da5cb5b146104575780639c868ac014610475578063aaf5eb6814610493578063ab5ac061146104b1578063b4b577ad146104cf5761023b565b8063405e28f8116101c7578063551a65881161018b578063551a6588146103c7578063556d6e9f146103d157806358680d0b146104015780635b41b9081461041f5780635b5a14671461043b5761023b565b8063405e28f8146103355780634515cef3146103535780634903b0d11461036f5780634f12fe971461039f5780635409491a146103a95761023b565b80633046f9721161020e5780633046f972146102b757806330c54085146102c15780633883e119146102cb57806339698415146102fb5780633c157e64146103195761023b565b806306e9481c1461023f578063140522881461025d5780632081066c1461027b5780632935775014610299575b5f80fd5b6102476106bd565b6040516102549190612e73565b60405180910390f35b6102656106c4565b6040516102729190612e73565b60405180910390f35b6102836106ca565b6040516102909190612e73565b60405180910390f35b6102a16106d0565b6040516102ae9190612e73565b60405180910390f35b6102bf6106d5565b005b6102c9610776565b005b6102e560048036038101906102e09190613036565b610926565b6040516102f29190612e73565b60405180910390f35b610303610b1d565b6040516103109190612e73565b60405180910390f35b610333600480360381019061032e9190613074565b610b24565b005b61033d610d61565b60405161034a9190612e73565b60405180910390f35b61036d600480360381019061036891906130b2565b610d67565b005b610389600480360381019061038491906130f0565b6113b8565b6040516103969190612e73565b60405180910390f35b6103a76113d1565b005b6103b161152c565b6040516103be9190612e73565b60405180910390f35b6103cf611532565b005b6103eb60048036038101906103e6919061311b565b61161b565b6040516103f89190612e73565b60405180910390f35b610409611806565b6040516104169190612e73565b60405180910390f35b6104396004803603810190610434919061316b565b61180c565b005b61045560048036038101906104509190613074565b611ba6565b005b61045f611d4c565b60405161046c919061320e565b60405180910390f35b61047d611d71565b60405161048a9190613236565b60405180910390f35b61049b611d83565b6040516104a89190612e73565b60405180910390f35b6104b9611d8f565b6040516104c69190612e73565b60405180910390f35b6104d7611d94565b6040516104e49190612e73565b60405180910390f35b6104f5611d9a565b6040516105029190612e73565b60405180910390f35b610513611da6565b6040516105209190612e73565b60405180910390f35b610531611e8b565b60405161053e9190612e73565b60405180910390f35b610561600480360381019061055c91906130f0565b611e94565b60405161056e919061320e565b60405180910390f35b61057f611ec8565b60405161058c9190612e73565b60405180910390f35b61059d611ed1565b6040516105aa9190612e73565b60405180910390f35b6105cd60048036038101906105c891906130f0565b611ed7565b6040516105da9190612e73565b60405180910390f35b6105eb611fab565b005b6105f561204d565b6040516106029190612e73565b60405180910390f35b610613612053565b6040516106209190612e73565b60405180910390f35b610643600480360381019061063e919061324f565b61205a565b005b61064d612353565b60405161065a9190612e73565b60405180910390f35b61066b61235c565b6040516106789190612e73565b60405180910390f35b61068961236a565b60405161069691906132e8565b60405180910390f35b6106a761238f565b6040516106b49190612e73565b60405180910390f35b6201518081565b600e5481565b600d5481565b600381565b60095f9054906101000a900473ffffffffffffffffffffffffffffffffffffffff1673ffffffffffffffffffffffffffffffffffffffff163373ffffffffffffffffffffffffffffffffffffffff161461075b576040517fedf844e200000000000000000000000000000000000000000000000000000000815260040160405180910390fd5b5f60125f6101000a81548160ff021916908315150217905550565b60095f9054906101000a900473ffffffffffffffffffffffffffffffffffffffff1673ffffffffffffffffffffffffffffffffffffffff163373ffffffffffffffffffffffffffffffffffffffff16146107fc576040517fedf844e200000000000000000000000000000000000000000000000000000000815260040160405180910390fd5b5f5b6003811015610923575f6001826003811061081c5761081b613301565b5b015f9054906101000a900473ffffffffffffffffffffffffffffffffffffffff1690505f6004836003811061085457610853613301565b5b01548273ffffffffffffffffffffffffffffffffffffffff166370a08231306040518263ffffffff1660e01b815260040161088f919061320e565b602060405180830381865afa1580156108aa573d5f803e3d5ffd5b505050506040513d601f19601f820116820180604052508101906108ce9190613342565b6108d8919061339a565b90505f81111561090e5761090d33828473ffffffffffffffffffffffffffffffffffffffff166123959092919063ffffffff16565b5b5050808061091b906133cd565b9150506107fe565b50565b5f806004600380602002604051908101604052809291908260038015610961576020028201915b81548152602001906001019080831161094d575b505050505090505f610971612414565b90505f61097e83836124e2565b90505f5b6003811015610a305785156109d9578681600381106109a4576109a3613301565b5b60200201518482600381106109bc576109bb613301565b5b602002018181516109cd9190613414565b91508181525050610a1d565b8681600381106109ec576109eb613301565b5b6020020151848260038110610a0457610a03613301565b5b60200201818151610a15919061339a565b915081815250505b8080610a28906133cd565b915050610982565b505f610a3c84846124e2565b90505f600a5f9054906101000a900473ffffffffffffffffffffffffffffffffffffffff1673ffffffffffffffffffffffffffffffffffffffff166318160ddd6040518163ffffffff1660e01b8152600401602060405180830381865afa158015610aa9573d5f803e3d5ffd5b505050506040513d601f19601f82011682018060405250810190610acd9190613342565b90505f8715610ae9578383610ae2919061339a565b9050610af8565b8284610af5919061339a565b90505b838282610b059190613447565b610b0f91906134b5565b965050505050505092915050565b620f424081565b60095f9054906101000a900473ffffffffffffffffffffffffffffffffffffffff1673ffffffffffffffffffffffffffffffffffffffff163373ffffffffffffffffffffffffffffffffffffffff1614610baa576040517fedf844e200000000000000000000000000000000000000000000000000000000815260040160405180910390fd5b62015180600d54610bbb9190613414565b421015610bf4576040517fc193453800000000000000000000000000000000000000000000000000000000815260040160405180910390fd5b6201518042610c039190613414565b811015610c3c576040517f86529d2600000000000000000000000000000000000000000000000000000000815260040160405180910390fd5b5f610c45612414565b90505f831480610c585750620f42408310155b15610c8f576040517f4b1ed65d00000000000000000000000000000000000000000000000000000000815260040160405180910390fd5b808310158015610cab5750600a81610ca79190613447565b8311155b80610ccd57508083108015610ccc575080600a84610cc99190613447565b10155b5b610d03576040517fe368281f00000000000000000000000000000000000000000000000000000000815260040160405180910390fd5b80600b8190555082600c8190555042600d8190555081600e819055507fa2b71ec6df949300b59aab36b55e189697b750119dd349fcfa8c0f779e83c25481844285604051610d5494939291906134e5565b60405180910390a1505050565b600f5481565b610d6f6124fd565b60125f9054906101000a900460ff1615610db5576040517fcc502b4600000000000000000000000000000000000000000000000000000000815260040160405180910390fd5b610dbd612dde565b5f60016003610dcc919061339a565b6004610dd89190613447565b6003600754610de79190613447565b610df191906134b5565b90505f60085490505f610e02612414565b90505f600a5f9054906101000a900473ffffffffffffffffffffffffffffffffffffffff1673ffffffffffffffffffffffffffffffffffffffff166318160ddd6040518163ffffffff1660e01b8152600401602060405180830381865afa158015610e6f573d5f803e3d5ffd5b505050506040513d601f19601f82011682018060405250810190610e939190613342565b90505f806004600380602002604051908101604052809291908260038015610ed0576020028201915b815481526020019060010190808311610ebc575b505050505090505f831115610eec57610ee981856124e2565b91505b5f8190505f5b6003811015611014575f8b8260038110610f0f57610f0e613301565b5b602002015190505f8603610f57575f8103610f56576040517fb5ff9ac600000000000000000000000000000000000000000000000000000000815260040160405180910390fd5b5b5f811115610fc157610fc033308360018660038110610f7957610f78613301565b5b015f9054906101000a900473ffffffffffffffffffffffffffffffffffffffff1673ffffffffffffffffffffffffffffffffffffffff16612541909392919063ffffffff16565b5b80848360038110610fd557610fd4613301565b5b6020020151610fe49190613414565b838360038110610ff757610ff6613301565b5b60200201818152505050808061100c906133cd565b915050610ef2565b505f61102082876124e2565b905083811161105b576040517f0e491dfa00000000000000000000000000000000000000000000000000000000815260040160405180910390fd5b5f8190505f861115611223575f5b6003811015611211575f8686836003811061108757611086613301565b5b6020020151856110979190613447565b6110a191906134b5565b90505f8583600381106110b7576110b6613301565b5b60200201518211156110ed578583600381106110d6576110d5613301565b5b6020020151826110e6919061339a565b9050611113565b8186846003811061110157611100613301565b5b6020020151611110919061339a565b90505b6402540be400818d6111259190613447565b61112f91906134b5565b8d846003811061114257611141613301565b5b6020020181815250506402540be4008b8e856003811061116557611164613301565b5b60200201516111749190613447565b61117e91906134b5565b86846003811061119157611190613301565b5b60200201516111a0919061339a565b600484600381106111b4576111b3613301565b5b01819055508c83600381106111cc576111cb613301565b5b60200201518684600381106111e4576111e3613301565b5b602002018181516111f5919061339a565b9150818152505050508080611209906133cd565b915050611069565b5061121c83886124e2565b9050611236565b826004906003611234929190612e00565b505b5f8087036112465782905061126b565b858683611253919061339a565b8861125e9190613447565b61126891906134b5565b90505b8b8110156112a5576040517f55ca466900000000000000000000000000000000000000000000000000000000815260040160405180910390fd5b600a5f9054906101000a900473ffffffffffffffffffffffffffffffffffffffff1673ffffffffffffffffffffffffffffffffffffffff166340c10f1933836040518363ffffffff1660e01b8152600401611301929190613528565b6020604051808303815f875af115801561131d573d5f803e3d5ffd5b505050506040513d601f19601f820116820180604052508101906113419190613563565b503373ffffffffffffffffffffffffffffffffffffffff167f423f6495a08fc652425cf4ed0d1f9e37e571d9b9529b1c1c23cce780b2e7df0d8e8d86858c6113899190613414565b6040516113999493929190613633565b60405180910390a250505050505050505050506113b46125c3565b5050565b600481600381106113c7575f80fd5b015f915090505481565b60095f9054906101000a900473ffffffffffffffffffffffffffffffffffffffff1673ffffffffffffffffffffffffffffffffffffffff163373ffffffffffffffffffffffffffffffffffffffff1614611457576040517fedf844e200000000000000000000000000000000000000000000000000000000815260040160405180910390fd5b600f54421015611493576040517f4eef43b100000000000000000000000000000000000000000000000000000000815260040160405180910390fd5b5f600f54036114ce576040517f5834049c00000000000000000000000000000000000000000000000000000000815260040160405180910390fd5b5f600f819055505f60105490505f601154905081600781905550806008819055507fbe12859b636aed607d5230b2cc2711f68d70e51060e6cca1f575ef5d2fcc95d18282604051611520929190613677565b60405180910390a15050565b600b5481565b60095f9054906101000a900473ffffffffffffffffffffffffffffffffffffffff1673ffffffffffffffffffffffffffffffffffffffff163373ffffffffffffffffffffffffffffffffffffffff16146115b8576040517fedf844e200000000000000000000000000000000000000000000000000000000815260040160405180910390fd5b5f6115c1612414565b905080600b8190555080600c8190555042600d8190555042600e819055507f46e22fb3709ad289f62ce63d469248536dbc78d82b84a3d7e74ad606dc2019388142604051611610929190613677565b60405180910390a150565b5f806116256125cc565b90505f8086036116655760018461163c9190613447565b825f6003811061164f5761164e613301565b5b602002015161165e9190613414565b90506116e0565b600186036116a85764e8d4a510008461167e9190613447565b8260016003811061169257611691613301565b5b60200201516116a19190613414565b90506116df565b64e8d4a51000846116b99190613447565b826002600381106116cd576116cc613301565b5b60200201516116dc9190613414565b90505b5b5f6116ed8787848661269d565b90505f8087036117385760018083865f6003811061170e5761170d613301565b5b602002015161171d919061339a565b611727919061339a565b61173191906134b5565b90506117cb565b600187036117875764e8d4a510006001838660016003811061175d5761175c613301565b5b602002015161176c919061339a565b611776919061339a565b61178091906134b5565b90506117ca565b64e8d4a51000600183866002600381106117a4576117a3613301565b5b60200201516117b3919061339a565b6117bd919061339a565b6117c791906134b5565b90505b5b5f6402540be400826007546117e09190613447565b6117ea91906134b5565b905080826117f8919061339a565b955050505050509392505050565b60105481565b6118146124fd565b60125f9054906101000a900460ff161561185a576040517fcc502b4600000000000000000000000000000000000000000000000000000000815260040160405180910390fd5b828403611893576040517fcd723dc300000000000000000000000000000000000000000000000000000000815260040160405180910390fd5b6003841015806118a4575060038310155b156118db576040517f5da3742100000000000000000000000000000000000000000000000000000000815260040160405180910390fd5b5f8203611914576040517fa4c5646700000000000000000000000000000000000000000000000000000000815260040160405180910390fd5b5f600460038060200260405190810160405280929190826003801561194e576020028201915b81548152602001906001019080831161193a575b505050505090505f61195f82612915565b90506119c233308660018a6003811061197b5761197a613301565b5b015f9054906101000a900473ffffffffffffffffffffffffffffffffffffffff1673ffffffffffffffffffffffffffffffffffffffff16612541909392919063ffffffff16565b5f6119ce8288876129ee565b90505f6119dd8888848661269d565b90505f600182858a600381106119f6576119f5613301565b5b6020020151611a05919061339a565b611a0f919061339a565b90505f80611a1d838b612aae565b9150915087821015611a5b576040517f55ca466900000000000000000000000000000000000000000000000000000000815260040160405180910390fd5b88878c60038110611a6f57611a6e613301565b5b6020020151611a7e9190613414565b60048c60038110611a9257611a91613301565b5b01819055508082888c60038110611aac57611aab613301565b5b6020020151611abb919061339a565b611ac5919061339a565b60048b60038110611ad957611ad8613301565b5b0181905550611b3d338360018d60038110611af757611af6613301565b5b015f9054906101000a900473ffffffffffffffffffffffffffffffffffffffff1673ffffffffffffffffffffffffffffffffffffffff166123959092919063ffffffff16565b3373ffffffffffffffffffffffffffffffffffffffff167fb2e76ae99761dc136e598d4a629bb347eccb9532a5f8bbd72e18467c3c34cc988c8b8d86604051611b8994939291906134e5565b60405180910390a250505050505050611ba06125c3565b50505050565b60095f9054906101000a900473ffffffffffffffffffffffffffffffffffffffff1673ffffffffffffffffffffffffffffffffffffffff163373ffffffffffffffffffffffffffffffffffffffff1614611c2c576040517fedf844e200000000000000000000000000000000000000000000000000000000815260040160405180910390fd5b5f600f5414611c67576040517f77b5d62800000000000000000000000000000000000000000000000000000000815260040160405180910390fd5b64012a05f200821115611ca6576040517f74ad7ab800000000000000000000000000000000000000000000000000000000815260040160405180910390fd5b6402540be400811115611ce5576040517f74c8041900000000000000000000000000000000000000000000000000000000815260040160405180910390fd5b5f6203f48042611cf59190613414565b905080600f8190555082601081905550816011819055507f351fc5da2fbf480f2225debf3664a4bc90fa9923743aad58b4603f648e931fe0818484604051611d3f9392919061369e565b60405180910390a1505050565b60095f9054906101000a900473ffffffffffffffffffffffffffffffffffffffff1681565b60125f9054906101000a900460ff1681565b670de0b6b3a764000081565b600a81565b600c5481565b670de0b6b3a764000081565b5f80611dc0611db36125cc565b611dbb612414565b612b90565b90505f600a5f9054906101000a900473ffffffffffffffffffffffffffffffffffffffff1673ffffffffffffffffffffffffffffffffffffffff166318160ddd6040518163ffffffff1660e01b8152600401602060405180830381865afa158015611e2d573d5f803e3d5ffd5b505050506040513d601f19601f82011682018060405250810190611e519190613342565b90505f8103611e64575f92505050611e88565b80670de0b6b3a764000083611e799190613447565b611e8391906134b5565b925050505b90565b64012a05f20081565b60018160038110611ea3575f80fd5b015f915054906101000a900473ffffffffffffffffffffffffffffffffffffffff1681565b6402540be40081565b60075481565b5f60048260038110611eec57611eeb613301565b5b015460018360038110611f0257611f01613301565b5b015f9054906101000a900473ffffffffffffffffffffffffffffffffffffffff1673ffffffffffffffffffffffffffffffffffffffff166370a08231306040518263ffffffff1660e01b8152600401611f5b919061320e565b602060405180830381865afa158015611f76573d5f803e3d5ffd5b505050506040513d601f19601f82011682018060405250810190611f9a9190613342565b611fa4919061339a565b9050919050565b60095f9054906101000a900473ffffffffffffffffffffffffffffffffffffffff1673ffffffffffffffffffffffffffffffffffffffff163373ffffffffffffffffffffffffffffffffffffffff1614612031576040517fedf844e200000000000000000000000000000000000000000000000000000000815260040160405180910390fd5b600160125f6101000a81548160ff021916908315150217905550565b60115481565b6203f48081565b6120626124fd565b5f600a5f9054906101000a900473ffffffffffffffffffffffffffffffffffffffff1673ffffffffffffffffffffffffffffffffffffffff166318160ddd6040518163ffffffff1660e01b8152600401602060405180830381865afa1580156120cd573d5f803e3d5ffd5b505050506040513d601f19601f820116820180604052508101906120f19190613342565b90506120fb612dde565b612103612dde565b5f5b6003811015612249575f84876004846003811061212557612124613301565b5b01546121319190613447565b61213b91906134b5565b90508582600381106121505761214f613301565b5b602002015181101561218e576040517fae1df02800000000000000000000000000000000000000000000000000000000815260040160405180910390fd5b80600483600381106121a3576121a2613301565b5b015f8282546121b2919061339a565b92505081905550808483600381106121cd576121cc613301565b5b6020020181815250506122353382600185600381106121ef576121ee613301565b5b015f9054906101000a900473ffffffffffffffffffffffffffffffffffffffff1673ffffffffffffffffffffffffffffffffffffffff166123959092919063ffffffff16565b508080612241906133cd565b915050612105565b50600a5f9054906101000a900473ffffffffffffffffffffffffffffffffffffffff1673ffffffffffffffffffffffffffffffffffffffff166379cc679033876040518363ffffffff1660e01b81526004016122a6929190613528565b6020604051808303815f875af11580156122c2573d5f803e3d5ffd5b505050506040513d601f19601f820116820180604052508101906122e69190613563565b503373ffffffffffffffffffffffffffffffffffffffff167fa49d4cf02656aebf8c771f5a8585638a2a15ee6c97cf7205d4208ed7c1df252d8383888761232d919061339a565b60405161233c939291906136d3565b60405180910390a250505061234f6125c3565b5050565b6402540be40081565b5f612365612414565b905090565b600a5f9054906101000a900473ffffffffffffffffffffffffffffffffffffffff1681565b60085481565b61240f838473ffffffffffffffffffffffffffffffffffffffff1663a9059cbb85856040516024016123c8929190613528565b604051602081830303815290604052915060e01b6020820180517bffffffffffffffffffffffffffffffffffffffffffffffffffffffff8381831617835250505050612d43565b505050565b5f80600e5490505f600c549050814210156124d9575f600b5490505f600d5490508183111561248b578084612449919061339a565b8142612455919061339a565b8385612461919061339a565b61246b9190613447565b61247591906134b5565b826124809190613414565b9450505050506124df565b8084612497919061339a565b81426124a3919061339a565b84846124af919061339a565b6124b99190613447565b6124c391906134b5565b826124ce919061339a565b9450505050506124df565b80925050505b90565b5f6124f56124ef84612915565b83612b90565b905092915050565b60025f5403612538576040517f3ee5aeb500000000000000000000000000000000000000000000000000000000815260040160405180910390fd5b60025f81905550565b6125bd848573ffffffffffffffffffffffffffffffffffffffff166323b872dd86868660405160240161257693929190613708565b604051602081830303815290604052915060e01b6020820180517bffffffffffffffffffffffffffffffffffffffffffffffffffffffff8381831617835250505050612d43565b50505050565b60015f81905550565b6125d4612dde565b600160045f600381106125ea576125e9613301565b5b01546125f69190613447565b815f6003811061260957612608613301565b5b60200201818152505064e8d4a51000600460016003811061262d5761262c613301565b5b01546126399190613447565b8160016003811061264d5761264c613301565b5b60200201818152505064e8d4a51000600460026003811061267157612670613301565b5b015461267d9190613447565b8160026003811061269157612690613301565b5b60200201818152505090565b5f8385036126d7576040517fcd723dc300000000000000000000000000000000000000000000000000000000815260040160405180910390fd5b5f8410806126e6575060038410155b1561271d576040517f5da3742100000000000000000000000000000000000000000000000000000000815260040160405180910390fd5b5f85108061272c575060038510155b15612763576040517f5da3742100000000000000000000000000000000000000000000000000000000815260040160405180910390fd5b5f61276c612414565b90505f6127798483612b90565b90505f6003836127899190613447565b90505f8290505f805f5b600381101561281e578b81036127ab578991506127d7565b8a81146127d1578881600381106127c5576127c4613301565b5b602002015191506127d6565b61280b565b5b81836127e39190613414565b92506003826127f29190613447565b86856127fe9190613447565b61280891906134b5565b93505b8080612816906133cd565b915050612793565b5060038461282c9190613447565b85846128389190613447565b61284291906134b5565b92505f848661285191906134b5565b8361285c9190613414565b90505f808790505f5b60ff8110156129005781925088848360026128809190613447565b61288a9190613414565b612894919061339a565b8783846128a19190613447565b6128ab9190613414565b6128b591906134b5565b9150828211156128d857600183836128cd919061339a565b1115612900576128ed565b600182846128e6919061339a565b1115612900575b80806128f8906133cd565b915050612865565b50809950505050505050505050949350505050565b61291d612dde565b6001825f6003811061293257612931613301565b5b60200201516129419190613447565b815f6003811061295457612953613301565b5b60200201818152505064e8d4a510008260016003811061297757612976613301565b5b60200201516129869190613447565b8160016003811061299a57612999613301565b5b60200201818152505064e8d4a51000826002600381106129bd576129bc613301565b5b60200201516129cc9190613447565b816002600381106129e0576129df613301565b5b602002018181525050919050565b5f808303612a2c57600182612a039190613447565b845f60038110612a1657612a15613301565b5b6020020151612a259190613414565b9050612aa7565b60018303612a6f5764e8d4a5100082612a459190613447565b84600160038110612a5957612a58613301565b5b6020020151612a689190613414565b9050612aa6565b64e8d4a5100082612a809190613447565b84600260038110612a9457612a93613301565b5b6020020151612aa39190613414565b90505b5b9392505050565b5f805f6402540be40060075486612ac59190613447565b612acf91906134b5565b90505f6402540be40060085483612ae69190613447565b612af091906134b5565b90505f8287612aff919061339a565b90505f8603612b2b57600181612b1591906134b5565b9450600182612b2491906134b5565b9350612b86565b60018603612b5e5764e8d4a5100081612b4491906134b5565b945064e8d4a5100082612b5791906134b5565b9350612b85565b64e8d4a5100081612b6f91906134b5565b945064e8d4a5100082612b8291906134b5565b93505b5b5050509250929050565b5f805f90505f5b6003811015612bd857848160038110612bb357612bb2613301565b5b602002015182612bc39190613414565b91508080612bd0906133cd565b915050612b97565b505f8103612be9575f915050612d3d565b5f808290505f600386612bfc9190613447565b90505f5b60ff811015612d34575f8390505f5b6003811015612c675760038a8260038110612c2d57612c2c613301565b5b6020020151612c3c9190613447565b8583612c489190613447565b612c5291906134b5565b91508080612c5f906133cd565b915050612c0f565b508394508060016003612c7a9190613414565b612c849190613447565b84600185612c92919061339a565b612c9c9190613447565b612ca69190613414565b84600383612cb49190613447565b8886612cc09190613447565b612cca9190613414565b612cd49190613447565b612cde91906134b5565b935084841115612d065760018585612cf6919061339a565b11612d015750612d34565b612d20565b60018486612d14919061339a565b11612d1f5750612d34565b5b508080612d2c906133cd565b915050612c00565b50819450505050505b92915050565b5f8060205f8451602086015f885af180612d62576040513d5f823e3d81fd5b3d92505f519150505f8214612d7b576001811415612d96565b5f8473ffffffffffffffffffffffffffffffffffffffff163b145b15612dd857836040517f5274afe7000000000000000000000000000000000000000000000000000000008152600401612dcf919061320e565b60405180910390fd5b50505050565b6040518060600160405280600390602082028036833780820191505090505090565b8260038101928215612e2f579160200282015b82811115612e2e578251825591602001919060010190612e13565b5b509050612e3c9190612e40565b5090565b5b80821115612e57575f815f905550600101612e41565b5090565b5f819050919050565b612e6d81612e5b565b82525050565b5f602082019050612e865f830184612e64565b92915050565b5f604051905090565b5f80fd5b5f80fd5b5f601f19601f8301169050919050565b7f4e487b71000000000000000000000000000000000000000000000000000000005f52604160045260245ffd5b612ee382612e9d565b810181811067ffffffffffffffff82111715612f0257612f01612ead565b5b80604052505050565b5f612f14612e8c565b9050612f208282612eda565b919050565b5f67ffffffffffffffff821115612f3f57612f3e612ead565b5b602082029050919050565b5f80fd5b612f5781612e5b565b8114612f61575f80fd5b50565b5f81359050612f7281612f4e565b92915050565b5f612f8a612f8584612f25565b612f0b565b90508060208402830185811115612fa457612fa3612f4a565b5b835b81811015612fcd5780612fb98882612f64565b845260208401935050602081019050612fa6565b5050509392505050565b5f82601f830112612feb57612fea612e99565b5b6003612ff8848285612f78565b91505092915050565b5f8115159050919050565b61301581613001565b811461301f575f80fd5b50565b5f813590506130308161300c565b92915050565b5f806080838503121561304c5761304b612e95565b5b5f61305985828601612fd7565b925050606061306a85828601613022565b9150509250929050565b5f806040838503121561308a57613089612e95565b5b5f61309785828601612f64565b92505060206130a885828601612f64565b9150509250929050565b5f80608083850312156130c8576130c7612e95565b5b5f6130d585828601612fd7565b92505060606130e685828601612f64565b9150509250929050565b5f6020828403121561310557613104612e95565b5b5f61311284828501612f64565b91505092915050565b5f805f6060848603121561313257613131612e95565b5b5f61313f86828701612f64565b935050602061315086828701612f64565b925050604061316186828701612f64565b9150509250925092565b5f805f806080858703121561318357613182612e95565b5b5f61319087828801612f64565b94505060206131a187828801612f64565b93505060406131b287828801612f64565b92505060606131c387828801612f64565b91505092959194509250565b5f73ffffffffffffffffffffffffffffffffffffffff82169050919050565b5f6131f8826131cf565b9050919050565b613208816131ee565b82525050565b5f6020820190506132215f8301846131ff565b92915050565b61323081613001565b82525050565b5f6020820190506132495f830184613227565b92915050565b5f806080838503121561326557613264612e95565b5b5f61327285828601612f64565b925050602061328385828601612fd7565b9150509250929050565b5f819050919050565b5f6132b06132ab6132a6846131cf565b61328d565b6131cf565b9050919050565b5f6132c182613296565b9050919050565b5f6132d2826132b7565b9050919050565b6132e2816132c8565b82525050565b5f6020820190506132fb5f8301846132d9565b92915050565b7f4e487b71000000000000000000000000000000000000000000000000000000005f52603260045260245ffd5b5f8151905061333c81612f4e565b92915050565b5f6020828403121561335757613356612e95565b5b5f6133648482850161332e565b91505092915050565b7f4e487b71000000000000000000000000000000000000000000000000000000005f52601160045260245ffd5b5f6133a482612e5b565b91506133af83612e5b565b92508282039050818111156133c7576133c661336d565b5b92915050565b5f6133d782612e5b565b91507fffffffffffffffffffffffffffffffffffffffffffffffffffffffffffffffff82036134095761340861336d565b5b600182019050919050565b5f61341e82612e5b565b915061342983612e5b565b92508282019050808211156134415761344061336d565b5b92915050565b5f61345182612e5b565b915061345c83612e5b565b925082820261346a81612e5b565b915082820484148315176134815761348061336d565b5b5092915050565b7f4e487b71000000000000000000000000000000000000000000000000000000005f52601260045260245ffd5b5f6134bf82612e5b565b91506134ca83612e5b565b9250826134da576134d9613488565b5b828204905092915050565b5f6080820190506134f85f830187612e64565b6135056020830186612e64565b6135126040830185612e64565b61351f6060830184612e64565b95945050505050565b5f60408201905061353b5f8301856131ff565b6135486020830184612e64565b9392505050565b5f8151905061355d8161300c565b92915050565b5f6020828403121561357857613577612e95565b5b5f6135858482850161354f565b91505092915050565b5f60039050919050565b5f81905092915050565b5f819050919050565b6135b481612e5b565b82525050565b5f6135c583836135ab565b60208301905092915050565b5f602082019050919050565b6135e68161358e565b6135f08184613598565b92506135fb826135a2565b805f5b8381101561362b57815161361287826135ba565b965061361d836135d1565b9250506001810190506135fe565b505050505050565b5f610100820190506136475f8301876135dd565b61365460608301866135dd565b61366160c0830185612e64565b61366e60e0830184612e64565b95945050505050565b5f60408201905061368a5f830185612e64565b6136976020830184612e64565b9392505050565b5f6060820190506136b15f830186612e64565b6136be6020830185612e64565b6136cb6040830184612e64565b949350505050565b5f60e0820190506136e65f8301866135dd565b6136f360608301856135dd565b61370060c0830184612e64565b949350505050565b5f60608201905061371b5f8301866131ff565b61372860208301856131ff565b6137356040830184612e64565b94935050505056fea2646970667358221220dcec3799657d18d70c9cb9e12b914792d0215cb3e2337ce1172aa06d7143975164736f6c63430008140033","linkReferences":{}},"methodIdentifiers":{"A()":"f446c1d0","ADMIN_ACTIONS_DELAY()":"e5d9e903","FEE_DENOMINATOR()":"d73792a9","LENDING_PRECISION()":"b69009dc","MAX_A()":"39698415","MAX_ADMIN_FEE()":"f3de0362","MAX_A_CHANGE()":"ab5ac061","MAX_FEE()":"bc063e1a","MIN_RAMP_TIME()":"06e9481c","N_COINS()":"29357750","PRECISION()":"aaf5eb68","add_liquidity(uint256[3],uint256)":"4515cef3","admin_actions_deadline()":"405e28f8","admin_balances(uint256)":"e2e7d264","admin_fee()":"fee3f7f9","apply_new_fee()":"4f12fe97","balances(uint256)":"4903b0d1","calc_token_amount(uint256[3],bool)":"3883e119","coins(uint256)":"c6610657","commit_new_fee(uint256,uint256)":"5b5a1467","exchange(uint256,uint256,uint256,uint256)":"5b41b908","fee()":"ddca3f43","future_A()":"b4b577ad","future_A_time()":"14052288","future_admin_fee()":"e3824462","future_fee()":"58680d0b","get_dy(uint256,uint256,uint256)":"556d6e9f","get_virtual_price()":"bb7b8b80","initial_A()":"5409491a","initial_A_time()":"2081066c","is_killed()":"9c868ac0","kill_me()":"e3698853","owner()":"8da5cb5b","ramp_A(uint256,uint256)":"3c157e64","remove_liquidity(uint256,uint256[3])":"ecb586a5","stop_ramp_A()":"551a6588","token()":"fc0c546a","unkill_me()":"3046f972","withdraw_admin_fees()":"30c54085"},"id":32}