{"abi":[{"type":"constructor","inputs":[],"stateMutability":"nonpayable"},{"type":"function","name":"DECIMALS_USDT","inputs":[],"outputs":[{"name":"","type":"uint8","internalType":"uint8"}],"stateMutability":"view"},{"type":"function","name":"INITIAL_SUPPLY","inputs":[],"outputs":[{"name":"","type":"uint256","internalType":"uint256"}],"stateMutability":"view"},{"type":"function","name":"MAX_TRANSFER_FEE","inputs":[],"outputs":[{"name":"","type":"uint256","internalType":"uint256"}],"stateMutability":"view"},{"type":"function","name":"allowance","inputs":[{"name":"owner","type":"address","internalType":"address"},{"name":"spender","type":"address","internalType":"address"}],"outputs":[{"name":"","type":"uint256","internalType":"uint256"}],"stateMutability":"view"},{"type":"function","name":"approve","inputs":[{"name":"spender","type":"address","internalType":"address"},{"name":"value","type":"uint256","internalType":"uint256"}],"outputs":[{"name":"","type":"bool","internalType":"bool"}],"stateMutability":"nonpayable"},{"type":"function","name":"balanceOf","inputs":[{"name":"account","type":"address","internalType":"address"}],"outputs":[{"name":"","type":"uint256","internalType":"uint256"}],"stateMutability":"view"},{"type":"function","name":"decimals","inputs":[],"outputs":[{"name":"","type":"uint8","internalType":"uint8"}],"stateMutability":"pure"},{"type":"function","name":"feeRecipient","inputs":[],"outputs":[{"name":"","type":"address","internalType":"address"}],"stateMutability":"view"},{"type":"function","name":"mint","inputs":[{"name":"to","type":"address","internalType":"address"},{"name":"amount","type":"uint256","internalType":"uint256"}],"outputs":[],"stateMutability":"nonpayable"},{"type":"function","name":"name","inputs":[],"outputs":[{"name":"","type":"string","internalType":"string"}],"stateMutability":"view"},{"type":"function","name":"setFeeRecipient","inputs":[{"name":"_recipient","type":"address","internalType":"address"}],"outputs":[],"stateMutability":"nonpayable"},{"type":"function","name":"setTransferFee","inputs":[{"name":"_fee","type":"uint256","internalType":"uint256"}],"outputs":[],"stateMutability":"nonpayable"},{"type":"function","name":"symbol","inputs":[],"outputs":[{"name":"","type":"string","internalType":"string"}],"stateMutability":"view"},{"type":"function","name":"totalSupply","inputs":[],"outputs":[{"name":"","type":"uint256","internalType":"uint256"}],"stateMutability":"view"},{"type":"function","name":"transfer","inputs":[{"name":"to","type":"address","internalType":"address"},{"name":"value","type":"uint256","internalType":"uint256"}],"outputs":[{"name":"","type":"bool","internalType":"bool"}],"stateMutability":"nonpayable"},{"type":"function","name":"transferFee","inputs":[],"outputs":[{"name":"","type":"uint256","internalType":"uint256"}],"stateMutability":"view"},{"type":"function","name":"transferFrom","inputs":[{"name":"from","type":"address","internalType":"address"},{"name":"to","type":"address","internalType":"address"},{"name":"value","type":"uint256","internalType":"uint256"}],"outputs":[{"name":"","type":"bool","internalType":"bool"}],"stateMutability":"nonpayable"},{"type":"event","name":"Approval","inputs":[{"name":"owner","type":"address","indexed":true,"internalType":"address"},{"name":"spender","type":"address","indexed":true,"internalType":"address"},{"name":"value","type":"uint256","indexed":false,"internalType":"uint256"}],"anonymous":false},{"type":"event","name":"FeeRecipientUpdated","inputs":[{"name":"newRecipient","type":"address","indexed":false,"internalType":"address"}],"anonymous":false},{"type":"event","name":"Transfer","inputs":[{"name":"from","type":"address","indexed":true,"internalType":"address"},{"name":"to","type":"address","indexed":true,"internalType":"address"},{"name":"value","type":"uint256","indexed":false,"internalType":"uint256"}],"anonymous":false},{"type":"event","name":"TransferFeeUpdated","inputs":[{"name":"newFee","type":"uint256","indexed":false,"internalType":"uint256"}],"anonymous":false},{"type":"error","name":"ERC20InsufficientAllowance","inputs":[{"name":"spender","type":"address","internalType":"address"},{"name":"allowance","type":"uint256","internalType":"uint256"},{"name":"needed","type":"uint256","internalType":"uint256"}]},{"type":"error","name":"ERC20InsufficientBalance","inputs":[{"name":"sender","type":"address","internalType":"address"},{"name":"balance","type":"uint256","internalType":"uint256"},{"name":"needed","type":"uint256","internalType":"uint256"}]},{"type":"error","name":"ERC20InvalidApprover","inputs":[{"name":"approver","type":"address","internalType":"address"}]},{"type":"error","name":"ERC20InvalidReceiver","inputs":[{"name":"receiver","type":"address","internalType":"address"}]},{"type":"error","name":"ERC20InvalidSender","inputs":[{"name":"sender","type":"address","internalType":"address"}]},{"type":"error","name":"ERC20InvalidSpender","inputs":[{"name":"spender","type":"address","internalType":"address"}]}],"bytecode":{"object":"0x60806040525f60055534801562000014575f80fd5b506040518060400160405280600a81526020017f54657468657220555344000000000000000000000000000000000000000000008152506040518060400160405280600481526020017f5553445400000000000000000000000000000000000000000000000000000000815250816003908162000092919062000737565b508060049081620000a4919062000737565b505050620000d8336006600a620000bc9190620009a4565b620f4240620000cc9190620009f4565b6200011e60201b60201c565b3360065f6101000a81548173ffffffffffffffffffffffffffffffffffffffff021916908373ffffffffffffffffffffffffffffffffffffffff16021790555062000bdb565b5f73ffffffffffffffffffffffffffffffffffffffff168273ffffffffffffffffffffffffffffffffffffffff160362000191575f6040517fec442f0500000000000000000000000000000000000000000000000000000000815260040162000188919062000a81565b60405180910390fd5b620001a45f8383620001a860201b60201c565b5050565b5f73ffffffffffffffffffffffffffffffffffffffff168373ffffffffffffffffffffffffffffffffffffffff16141580156200021157505f73ffffffffffffffffffffffffffffffffffffffff168273ffffffffffffffffffffffffffffffffffffffff1614155b80156200021f57505f600554115b1562000297575f61271060055483620002399190620009f4565b62000245919062000ac9565b90505f8111156200029557620002848460065f9054906101000a900473ffffffffffffffffffffffffffffffffffffffff1683620002af60201b60201c565b808262000292919062000b00565b91505b505b620002aa838383620002af60201b60201c565b505050565b5f73ffffffffffffffffffffffffffffffffffffffff168373ffffffffffffffffffffffffffffffffffffffff160362000303578060025f828254620002f6919062000b3a565b92505081905550620003d4565b5f805f8573ffffffffffffffffffffffffffffffffffffffff1673ffffffffffffffffffffffffffffffffffffffff1681526020019081526020015f20549050818110156200038f578381836040517fe450d38c000000000000000000000000000000000000000000000000000000008152600401620003869392919062000b85565b60405180910390fd5b8181035f808673ffffffffffffffffffffffffffffffffffffffff1673ffffffffffffffffffffffffffffffffffffffff1681526020019081526020015f2081905550505b5f73ffffffffffffffffffffffffffffffffffffffff168273ffffffffffffffffffffffffffffffffffffffff16036200041d578060025f828254039250508190555062000467565b805f808473ffffffffffffffffffffffffffffffffffffffff1673ffffffffffffffffffffffffffffffffffffffff1681526020019081526020015f205f82825401925050819055505b8173ffffffffffffffffffffffffffffffffffffffff168373ffffffffffffffffffffffffffffffffffffffff167fddf252ad1be2c89b69c2b068fc378daa952ba7f163c4a11628f55a4df523b3ef83604051620004c6919062000bc0565b60405180910390a3505050565b5f81519050919050565b7f4e487b71000000000000000000000000000000000000000000000000000000005f52604160045260245ffd5b7f4e487b71000000000000000000000000000000000000000000000000000000005f52602260045260245ffd5b5f60028204905060018216806200054f57607f821691505b6020821081036200056557620005646200050a565b5b50919050565b5f819050815f5260205f209050919050565b5f6020601f8301049050919050565b5f82821b905092915050565b5f60088302620005c97fffffffffffffffffffffffffffffffffffffffffffffffffffffffffffffffff826200058c565b620005d586836200058c565b95508019841693508086168417925050509392505050565b5f819050919050565b5f819050919050565b5f6200061f620006196200061384620005ed565b620005f6565b620005ed565b9050919050565b5f819050919050565b6200063a83620005ff565b62000652620006498262000626565b84845462000598565b825550505050565b5f90565b620006686200065a565b620006758184846200062f565b505050565b5b818110156200069c57620006905f826200065e565b6001810190506200067b565b5050565b601f821115620006eb57620006b5816200056b565b620006c0846200057d565b81016020851015620006d0578190505b620006e8620006df856200057d565b8301826200067a565b50505b505050565b5f82821c905092915050565b5f6200070d5f1984600802620006f0565b1980831691505092915050565b5f620007278383620006fc565b9150826002028217905092915050565b6200074282620004d3565b67ffffffffffffffff8111156200075e576200075d620004dd565b5b6200076a825462000537565b62000777828285620006a0565b5f60209050601f831160018114620007ad575f841562000798578287015190505b620007a485826200071a565b86555062000813565b601f198416620007bd866200056b565b5f5b82811015620007e657848901518255600182019150602085019450602081019050620007bf565b8683101562000806578489015162000802601f891682620006fc565b8355505b6001600288020188555050505b505050505050565b7f4e487b71000000000000000000000000000000000000000000000000000000005f52601160045260245ffd5b5f8160011c9050919050565b5f808291508390505b6001851115620008a5578086048111156200087d576200087c6200081b565b5b60018516156200088d5780820291505b80810290506200089d8562000848565b94506200085d565b94509492505050565b5f82620008bf576001905062000991565b81620008ce575f905062000991565b8160018114620008e75760028114620008f25762000928565b600191505062000991565b60ff8411156200090757620009066200081b565b5b8360020a9150848211156200092157620009206200081b565b5b5062000991565b5060208310610133831016604e8410600b8410161715620009625782820a9050838111156200095c576200095b6200081b565b5b62000991565b62000971848484600162000854565b925090508184048111156200098b576200098a6200081b565b5b81810290505b9392505050565b5f60ff82169050919050565b5f620009b082620005ed565b9150620009bd8362000998565b9250620009ec7fffffffffffffffffffffffffffffffffffffffffffffffffffffffffffffffff8484620008ae565b905092915050565b5f62000a0082620005ed565b915062000a0d83620005ed565b925082820262000a1d81620005ed565b9150828204841483151762000a375762000a366200081b565b5b5092915050565b5f73ffffffffffffffffffffffffffffffffffffffff82169050919050565b5f62000a698262000a3e565b9050919050565b62000a7b8162000a5d565b82525050565b5f60208201905062000a965f83018462000a70565b92915050565b7f4e487b71000000000000000000000000000000000000000000000000000000005f52601260045260245ffd5b5f62000ad582620005ed565b915062000ae283620005ed565b92508262000af55762000af462000a9c565b5b828204905092915050565b5f62000b0c82620005ed565b915062000b1983620005ed565b925082820390508181111562000b345762000b336200081b565b5b92915050565b5f62000b4682620005ed565b915062000b5383620005ed565b925082820190508082111562000b6e5762000b6d6200081b565b5b92915050565b62000b7f81620005ed565b82525050565b5f60608201905062000b9a5f83018662000a70565b62000ba9602083018562000b74565b62000bb8604083018462000b74565b949350505050565b5f60208201905062000bd55f83018462000b74565b92915050565b61144f8062000be95f395ff3fe608060405234801561000f575f80fd5b5060043610610109575f3560e01c806370a08231116100a0578063acb2ad6f1161006f578063acb2ad6f146102b9578063adf57ac5146102d7578063b2b6bef5146102f5578063dd62ed3e14610313578063e74b981b1461034357610109565b806370a082311461021f5780638f02bb5b1461024f57806395d89b411461026b578063a9059cbb1461028957610109565b80632ff2e9dc116100dc5780632ff2e9dc146101a9578063313ce567146101c757806340c10f19146101e5578063469048401461020157610109565b806306fdde031461010d578063095ea7b31461012b57806318160ddd1461015b57806323b872dd14610179575b5f80fd5b61011561035f565b6040516101229190610efc565b60405180910390f35b61014560048036038101906101409190610fad565b6103ef565b6040516101529190611005565b60405180910390f35b610163610411565b604051610170919061102d565b60405180910390f35b610193600480360381019061018e9190611046565b61041a565b6040516101a09190611005565b60405180910390f35b6101b1610448565b6040516101be919061102d565b60405180910390f35b6101cf61044f565b6040516101dc91906110b1565b60405180910390f35b6101ff60048036038101906101fa9190610fad565b610457565b005b610209610465565b60405161021691906110d9565b60405180910390f35b610239600480360381019061023491906110f2565b61048a565b604051610246919061102d565b60405180910390f35b6102696004803603810190610264919061111d565b6104cf565b005b610273610555565b6040516102809190610efc565b60405180910390f35b6102a3600480360381019061029e9190610fad565b6105e5565b6040516102b09190611005565b60405180910390f35b6102c1610607565b6040516102ce919061102d565b60405180910390f35b6102df61060d565b6040516102ec91906110b1565b60405180910390f35b6102fd610612565b60405161030a919061102d565b60405180910390f35b61032d60048036038101906103289190611148565b610618565b60405161033a919061102d565b60405180910390f35b61035d600480360381019061035891906110f2565b61069a565b005b60606003805461036e906111b3565b80601f016020809104026020016040519081016040528092919081815260200182805461039a906111b3565b80156103e55780601f106103bc576101008083540402835291602001916103e5565b820191905f5260205f20905b8154815290600101906020018083116103c857829003601f168201915b5050505050905090565b5f806103f9610782565b9050610406818585610789565b600191505092915050565b5f600254905090565b5f80610424610782565b905061043185828561079b565b61043c85858561082e565b60019150509392505050565b620f424081565b5f6006905090565b610461828261091e565b5050565b60065f9054906101000a900473ffffffffffffffffffffffffffffffffffffffff1681565b5f805f8373ffffffffffffffffffffffffffffffffffffffff1673ffffffffffffffffffffffffffffffffffffffff1681526020019081526020015f20549050919050565b6103e8811115610514576040517f08c379a000000000000000000000000000000000000000000000000000000000815260040161050b9061122d565b60405180910390fd5b806005819055507ff9f635b7cf851af6071aaf78ef8a5f752dc52f19d556fea4512b0c2ad4baea728160405161054a919061102d565b60405180910390a150565b606060048054610564906111b3565b80601f0160208091040260200160405190810160405280929190818152602001828054610590906111b3565b80156105db5780601f106105b2576101008083540402835291602001916105db565b820191905f5260205f20905b8154815290600101906020018083116105be57829003601f168201915b5050505050905090565b5f806105ef610782565b90506105fc81858561082e565b600191505092915050565b60055481565b600681565b6103e881565b5f60015f8473ffffffffffffffffffffffffffffffffffffffff1673ffffffffffffffffffffffffffffffffffffffff1681526020019081526020015f205f8373ffffffffffffffffffffffffffffffffffffffff1673ffffffffffffffffffffffffffffffffffffffff1681526020019081526020015f2054905092915050565b5f73ffffffffffffffffffffffffffffffffffffffff168173ffffffffffffffffffffffffffffffffffffffff1603610708576040517f08c379a00000000000000000000000000000000000000000000000000000000081526004016106ff90611295565b60405180910390fd5b8060065f6101000a81548173ffffffffffffffffffffffffffffffffffffffff021916908373ffffffffffffffffffffffffffffffffffffffff1602179055507f7a7b5a0a132f9e0581eb8527f66eae9ee89c2a3e79d4ac7e41a1f1f4d48a7fc28160405161077791906110d9565b60405180910390a150565b5f33905090565b610796838383600161099d565b505050565b5f6107a68484610618565b90507fffffffffffffffffffffffffffffffffffffffffffffffffffffffffffffffff8110156108285781811015610819578281836040517ffb8f41b2000000000000000000000000000000000000000000000000000000008152600401610810939291906112b3565b60405180910390fd5b61082784848484035f61099d565b5b50505050565b5f73ffffffffffffffffffffffffffffffffffffffff168373ffffffffffffffffffffffffffffffffffffffff160361089e575f6040517f96c6fd1e00000000000000000000000000000000000000000000000000000000815260040161089591906110d9565b60405180910390fd5b5f73ffffffffffffffffffffffffffffffffffffffff168273ffffffffffffffffffffffffffffffffffffffff160361090e575f6040517fec442f0500000000000000000000000000000000000000000000000000000000815260040161090591906110d9565b60405180910390fd5b610919838383610b6c565b505050565b5f73ffffffffffffffffffffffffffffffffffffffff168273ffffffffffffffffffffffffffffffffffffffff160361098e575f6040517fec442f0500000000000000000000000000000000000000000000000000000000815260040161098591906110d9565b60405180910390fd5b6109995f8383610b6c565b5050565b5f73ffffffffffffffffffffffffffffffffffffffff168473ffffffffffffffffffffffffffffffffffffffff1603610a0d575f6040517fe602df05000000000000000000000000000000000000000000000000000000008152600401610a0491906110d9565b60405180910390fd5b5f73ffffffffffffffffffffffffffffffffffffffff168373ffffffffffffffffffffffffffffffffffffffff1603610a7d575f6040517f94280d62000000000000000000000000000000000000000000000000000000008152600401610a7491906110d9565b60405180910390fd5b8160015f8673ffffffffffffffffffffffffffffffffffffffff1673ffffffffffffffffffffffffffffffffffffffff1681526020019081526020015f205f8573ffffffffffffffffffffffffffffffffffffffff1673ffffffffffffffffffffffffffffffffffffffff1681526020019081526020015f20819055508015610b66578273ffffffffffffffffffffffffffffffffffffffff168473ffffffffffffffffffffffffffffffffffffffff167f8c5be1e5ebec7d5bd14f71427d1e84f3dd0314c0f7b2291e5b200ac8c7c3b92584604051610b5d919061102d565b60405180910390a35b50505050565b5f73ffffffffffffffffffffffffffffffffffffffff168373ffffffffffffffffffffffffffffffffffffffff1614158015610bd457505f73ffffffffffffffffffffffffffffffffffffffff168273ffffffffffffffffffffffffffffffffffffffff1614155b8015610be157505f600554115b15610c49575f61271060055483610bf89190611315565b610c029190611383565b90505f811115610c4757610c388460065f9054906101000a900473ffffffffffffffffffffffffffffffffffffffff1683610c59565b8082610c4491906113b3565b91505b505b610c54838383610c59565b505050565b5f73ffffffffffffffffffffffffffffffffffffffff168373ffffffffffffffffffffffffffffffffffffffff1603610ca9578060025f828254610c9d91906113e6565b92505081905550610d77565b5f805f8573ffffffffffffffffffffffffffffffffffffffff1673ffffffffffffffffffffffffffffffffffffffff1681526020019081526020015f2054905081811015610d32578381836040517fe450d38c000000000000000000000000000000000000000000000000000000008152600401610d29939291906112b3565b60405180910390fd5b8181035f808673ffffffffffffffffffffffffffffffffffffffff1673ffffffffffffffffffffffffffffffffffffffff1681526020019081526020015f2081905550505b5f73ffffffffffffffffffffffffffffffffffffffff168273ffffffffffffffffffffffffffffffffffffffff1603610dbe578060025f8282540392505081905550610e08565b805f808473ffffffffffffffffffffffffffffffffffffffff1673ffffffffffffffffffffffffffffffffffffffff1681526020019081526020015f205f82825401925050819055505b8173ffffffffffffffffffffffffffffffffffffffff168373ffffffffffffffffffffffffffffffffffffffff167fddf252ad1be2c89b69c2b068fc378daa952ba7f163c4a11628f55a4df523b3ef83604051610e65919061102d565b60405180910390a3505050565b5f81519050919050565b5f82825260208201905092915050565b5f5b83811015610ea9578082015181840152602081019050610e8e565b5f8484015250505050565b5f601f19601f8301169050919050565b5f610ece82610e72565b610ed88185610e7c565b9350610ee8818560208601610e8c565b610ef181610eb4565b840191505092915050565b5f6020820190508181035f830152610f148184610ec4565b905092915050565b5f80fd5b5f73ffffffffffffffffffffffffffffffffffffffff82169050919050565b5f610f4982610f20565b9050919050565b610f5981610f3f565b8114610f63575f80fd5b50565b5f81359050610f7481610f50565b92915050565b5f819050919050565b610f8c81610f7a565b8114610f96575f80fd5b50565b5f81359050610fa781610f83565b92915050565b5f8060408385031215610fc357610fc2610f1c565b5b5f610fd085828601610f66565b9250506020610fe185828601610f99565b9150509250929050565b5f8115159050919050565b610fff81610feb565b82525050565b5f6020820190506110185f830184610ff6565b92915050565b61102781610f7a565b82525050565b5f6020820190506110405f83018461101e565b92915050565b5f805f6060848603121561105d5761105c610f1c565b5b5f61106a86828701610f66565b935050602061107b86828701610f66565b925050604061108c86828701610f99565b9150509250925092565b5f60ff82169050919050565b6110ab81611096565b82525050565b5f6020820190506110c45f8301846110a2565b92915050565b6110d381610f3f565b82525050565b5f6020820190506110ec5f8301846110ca565b92915050565b5f6020828403121561110757611106610f1c565b5b5f61111484828501610f66565b91505092915050565b5f6020828403121561113257611131610f1c565b5b5f61113f84828501610f99565b91505092915050565b5f806040838503121561115e5761115d610f1c565b5b5f61116b85828601610f66565b925050602061117c85828601610f66565b9150509250929050565b7f4e487b71000000000000000000000000000000000000000000000000000000005f52602260045260245ffd5b5f60028204905060018216806111ca57607f821691505b6020821081036111dd576111dc611186565b5b50919050565b7f46656520746f6f206869676800000000000000000000000000000000000000005f82015250565b5f611217600c83610e7c565b9150611222826111e3565b602082019050919050565b5f6020820190508181035f8301526112448161120b565b9050919050565b7f496e76616c696420726563697069656e740000000000000000000000000000005f82015250565b5f61127f601183610e7c565b915061128a8261124b565b602082019050919050565b5f6020820190508181035f8301526112ac81611273565b9050919050565b5f6060820190506112c65f8301866110ca565b6112d3602083018561101e565b6112e0604083018461101e565b949350505050565b7f4e487b71000000000000000000000000000000000000000000000000000000005f52601160045260245ffd5b5f61131f82610f7a565b915061132a83610f7a565b925082820261133881610f7a565b9150828204841483151761134f5761134e6112e8565b5b5092915050565b7f4e487b71000000000000000000000000000000000000000000000000000000005f52601260045260245ffd5b5f61138d82610f7a565b915061139883610f7a565b9250826113a8576113a7611356565b5b828204905092915050565b5f6113bd82610f7a565b91506113c883610f7a565b92508282039050818111156113e0576113df6112e8565b5b92915050565b5f6113f082610f7a565b91506113fb83610f7a565b9250828201905080821115611413576114126112e8565b5b9291505056fea26469706673582212200e9530dafb0ce8739169421e587740908e74e46dbadf6b1ac2d420b8b891d3ce64736f6c63430008140033","linkReferences":{}},"methodIdentifiers":{"DECIMALS_USDT()":"adf57ac5","INITIAL_SUPPLY()":"2ff2e9dc","MAX_TRANSFER_FEE()":"b2b6bef5","allowance(address,address)":"dd62ed3e","approve(address,uint256)":"095ea7b3","balanceOf(address)":"70a08231","decimals()":"313ce567","feeRecipient()":"46904840","mint(address,uint256)":"40c10f19","name()":"06fdde03","setFeeRecipient(address)":"e74b981b","setTransferFee(uint256)":"8f02bb5b","symbol()":"95d89b41","totalSupply()":"18160ddd","transfer(address,uint256)":"a9059cbb","transferFee()":"acb2ad6f","transferFrom(address,address,uint256)":"23b872dd"},"id":40}