{"abi":[{"type":"constructor","inputs":[{"name":"name","type":"string","internalType":"string"},{"name":"symbol","type":"string","internalType":"string"},{"name":"_minter","type":"address","internalType":"address"},{"name":"initialOwner","type":"address","internalType":"address"}],"stateMutability":"nonpayable"},{"type":"function","name":"allowance","inputs":[{"name":"owner","type":"address","internalType":"address"},{"name":"spender","type":"address","internalType":"address"}],"outputs":[{"name":"","type":"uint256","internalType":"uint256"}],"stateMutability":"view"},{"type":"function","name":"approve","inputs":[{"name":"spender","type":"address","internalType":"address"},{"name":"value","type":"uint256","internalType":"uint256"}],"outputs":[{"name":"","type":"bool","internalType":"bool"}],"stateMutability":"nonpayable"},{"type":"function","name":"balanceOf","inputs":[{"name":"account","type":"address","internalType":"address"}],"outputs":[{"name":"","type":"uint256","internalType":"uint256"}],"stateMutability":"view"},{"type":"function","name":"burnFrom","inputs":[{"name":"_from","type":"address","internalType":"address"},{"name":"_value","type":"uint256","internalType":"uint256"}],"outputs":[{"name":"success","type":"bool","internalType":"bool"}],"stateMutability":"nonpayable"},{"type":"function","name":"decimals","inputs":[],"outputs":[{"name":"","type":"uint8","internalType":"uint8"}],"stateMutability":"view"},{"type":"function","name":"mint","inputs":[{"name":"_to","type":"address","internalType":"address"},{"name":"_value","type":"uint256","internalType":"uint256"}],"outputs":[{"name":"success","type":"bool","internalType":"bool"}],"stateMutability":"nonpayable"},{"type":"function","name":"name","inputs":[],"outputs":[{"name":"","type":"string","internalType":"string"}],"stateMutability":"view"},{"type":"function","name":"owner","inputs":[],"outputs":[{"name":"","type":"address","internalType":"address"}],"stateMutability":"view"},{"type":"function","name":"renounceOwnership","inputs":[],"outputs":[],"stateMutability":"nonpayable"},{"type":"function","name":"s_minter","inputs":[],"outputs":[{"name":"","type":"address","internalType":"address"}],"stateMutability":"view"},{"type":"function","name":"setMinter","inputs":[{"name":"_minter","type":"address","internalType":"address"}],"outputs":[],"stateMutability":"nonpayable"},{"type":"function","name":"symbol","inputs":[],"outputs":[{"name":"","type":"string","internalType":"string"}],"stateMutability":"view"},{"type":"function","name":"totalSupply","inputs":[],"outputs":[{"name":"","type":"uint256","internalType":"uint256"}],"stateMutability":"view"},{"type":"function","name":"transfer","inputs":[{"name":"to","type":"address","internalType":"address"},{"name":"value","type":"uint256","internalType":"uint256"}],"outputs":[{"name":"","type":"bool","internalType":"bool"}],"stateMutability":"nonpayable"},{"type":"function","name":"transferFrom","inputs":[{"name":"from","type":"address","internalType":"address"},{"name":"to","type":"address","internalType":"address"},{"name":"value","type":"uint256","internalType":"uint256"}],"outputs":[{"name":"","type":"bool","internalType":"bool"}],"stateMutability":"nonpayable"},{"type":"function","name":"transferOwnership","inputs":[{"name":"newOwner","type":"address","internalType":"address"}],"outputs":[],"stateMutability":"nonpayable"},{"type":"event","name":"Approval","inputs":[{"name":"owner","type":"address","indexed":true,"internalType":"address"},{"name":"spender","type":"address","indexed":true,"internalType":"address"},{"name":"value","type":"uint256","indexed":false,"internalType":"uint256"}],"anonymous":false},{"type":"event","name":"MinterSet","inputs":[{"name":"minter","type":"address","indexed":true,"internalType":"address"}],"anonymous":false},{"type":"event","name":"OwnershipTransferred","inputs":[{"name":"previousOwner","type":"address","indexed":true,"internalType":"address"},{"name":"newOwner","type":"address","indexed":true,"internalType":"address"}],"anonymous":false},{"type":"event","name":"Transfer","inputs":[{"name":"from","type":"address","indexed":true,"internalType":"address"},{"name":"to","type":"address","indexed":true,"internalType":"address"},{"name":"value","type":"uint256","indexed":false,"internalType":"uint256"}],"anonymous":false},{"type":"error","name":"CurveLPToken_CannotBurnFromZero","inputs":[]},{"type":"error","name":"CurveLPToken_CannotMintToZero","inputs":[]},{"type":"error","name":"CurveLPToken_InsufficientBalance","inputs":[]},{"type":"error","name":"CurveLPToken_InvalidMinter","inputs":[]},{"type":"error","name":"CurveLPToken_OnlyMinter","inputs":[]},{"type":"error","name":"ERC20InsufficientAllowance","inputs":[{"name":"spender","type":"address","internalType":"address"},{"name":"allowance","type":"uint256","internalType":"uint256"},{"name":"needed","type":"uint256","internalType":"uint256"}]},{"type":"error","name":"ERC20InsufficientBalance","inputs":[{"name":"sender","type":"address","internalType":"address"},{"name":"balance","type":"uint256","internalType":"uint256"},{"name":"needed","type":"uint256","internalType":"uint256"}]},{"type":"error","name":"ERC20InvalidApprover","inputs":[{"name":"approver","type":"address","internalType":"address"}]},{"type":"error","name":"ERC20InvalidReceiver","inputs":[{"name":"receiver","type":"address","internalType":"address"}]},{"type":"error","name":"ERC20InvalidSender","inputs":[{"name":"sender","type":"address","internalType":"address"}]},{"type":"error","name":"ERC20InvalidSpender","inputs":[{"name":"spender","type":"address","internalType":"address"}]},{"type":"error","name":"OwnableInvalidOwner","inputs":[{"name":"owner","type":"address","internalType":"address"}]},{"type":"error","name":"OwnableUnauthorizedAccount","inputs":[{"name":"account","type":"address","internalType":"address"}]}],"bytecode":{"object":"0x608060405234801562000010575f80fd5b5060405162001ecc38038062001ecc833981810160405281019062000036919062000470565b80848481600390816200004a919062000754565b5080600490816200005c919062000754565b5050505f73ffffffffffffffffffffffffffffffffffffffff168173ffffffffffffffffffffffffffffffffffffffff1603620000d2575f6040517f1e4fbdf7000000000000000000000000000000000000000000000000000000008152600401620000c9919062000849565b60405180910390fd5b620000e381620001c760201b60201c565b508160065f6101000a81548173ffffffffffffffffffffffffffffffffffffffff021916908373ffffffffffffffffffffffffffffffffffffffff1602179055505f73ffffffffffffffffffffffffffffffffffffffff168273ffffffffffffffffffffffffffffffffffffffff1614620001bd5760065f9054906101000a900473ffffffffffffffffffffffffffffffffffffffff1673ffffffffffffffffffffffffffffffffffffffff167f726b590ef91a8c76ad05bbe91a57ef84605276528f49cd47d787f558a4e755b660405160405180910390a25b5050505062000864565b5f60055f9054906101000a900473ffffffffffffffffffffffffffffffffffffffff1690508160055f6101000a81548173ffffffffffffffffffffffffffffffffffffffff021916908373ffffffffffffffffffffffffffffffffffffffff1602179055508173ffffffffffffffffffffffffffffffffffffffff168173ffffffffffffffffffffffffffffffffffffffff167f8be0079c531659141344cd1fd0a4f28419497f9722a3daafe3b4186f6b6457e060405160405180910390a35050565b5f604051905090565b5f80fd5b5f80fd5b5f80fd5b5f80fd5b5f601f19601f8301169050919050565b7f4e487b71000000000000000000000000000000000000000000000000000000005f52604160045260245ffd5b620002eb82620002a3565b810181811067ffffffffffffffff821117156200030d576200030c620002b3565b5b80604052505050565b5f620003216200028a565b90506200032f8282620002e0565b919050565b5f67ffffffffffffffff821115620003515762000350620002b3565b5b6200035c82620002a3565b9050602081019050919050565b5f5b83811015620003885780820151818401526020810190506200036b565b5f8484015250505050565b5f620003a9620003a38462000334565b62000316565b905082815260208101848484011115620003c857620003c76200029f565b5b620003d584828562000369565b509392505050565b5f82601f830112620003f457620003f36200029b565b5b81516200040684826020860162000393565b91505092915050565b5f73ffffffffffffffffffffffffffffffffffffffff82169050919050565b5f6200043a826200040f565b9050919050565b6200044c816200042e565b811462000457575f80fd5b50565b5f815190506200046a8162000441565b92915050565b5f805f80608085870312156200048b576200048a62000293565b5b5f85015167ffffffffffffffff811115620004ab57620004aa62000297565b5b620004b987828801620003dd565b945050602085015167ffffffffffffffff811115620004dd57620004dc62000297565b5b620004eb87828801620003dd565b9350506040620004fe878288016200045a565b925050606062000511878288016200045a565b91505092959194509250565b5f81519050919050565b7f4e487b71000000000000000000000000000000000000000000000000000000005f52602260045260245ffd5b5f60028204905060018216806200056c57607f821691505b60208210810362000582576200058162000527565b5b50919050565b5f819050815f5260205f209050919050565b5f6020601f8301049050919050565b5f82821b905092915050565b5f60088302620005e67fffffffffffffffffffffffffffffffffffffffffffffffffffffffffffffffff82620005a9565b620005f28683620005a9565b95508019841693508086168417925050509392505050565b5f819050919050565b5f819050919050565b5f6200063c6200063662000630846200060a565b62000613565b6200060a565b9050919050565b5f819050919050565b62000657836200061c565b6200066f620006668262000643565b848454620005b5565b825550505050565b5f90565b6200068562000677565b620006928184846200064c565b505050565b5b81811015620006b957620006ad5f826200067b565b60018101905062000698565b5050565b601f8211156200070857620006d28162000588565b620006dd846200059a565b81016020851015620006ed578190505b62000705620006fc856200059a565b83018262000697565b50505b505050565b5f82821c905092915050565b5f6200072a5f19846008026200070d565b1980831691505092915050565b5f62000744838362000719565b9150826002028217905092915050565b6200075f826200051d565b67ffffffffffffffff8111156200077b576200077a620002b3565b5b62000787825462000554565b62000794828285620006bd565b5f60209050601f831160018114620007ca575f8415620007b5578287015190505b620007c1858262000737565b86555062000830565b601f198416620007da8662000588565b5f5b828110156200080357848901518255600182019150602085019450602081019050620007dc565b868310156200082357848901516200081f601f89168262000719565b8355505b6001600288020188555050505b505050505050565b62000843816200042e565b82525050565b5f6020820190506200085e5f83018462000838565b92915050565b61165a80620008725f395ff3fe608060405234801561000f575f80fd5b50600436106100fe575f3560e01c806379cc679011610095578063d3cfee8b11610064578063d3cfee8b146102c2578063dd62ed3e146102e0578063f2fde38b14610310578063fca3b5aa1461032c576100fe565b806379cc6790146102265780638da5cb5b1461025657806395d89b4114610274578063a9059cbb14610292576100fe565b8063313ce567116100d1578063313ce5671461019e57806340c10f19146101bc57806370a08231146101ec578063715018a61461021c576100fe565b806306fdde0314610102578063095ea7b31461012057806318160ddd1461015057806323b872dd1461016e575b5f80fd5b61010a610348565b60405161011791906112d3565b60405180910390f35b61013a60048036038101906101359190611384565b6103d8565b60405161014791906113dc565b60405180910390f35b6101586103fa565b6040516101659190611404565b60405180910390f35b6101886004803603810190610183919061141d565b610403565b60405161019591906113dc565b60405180910390f35b6101a6610431565b6040516101b39190611488565b60405180910390f35b6101d660048036038101906101d19190611384565b610439565b6040516101e391906113dc565b60405180910390f35b610206600480360381019061020191906114a1565b610592565b6040516102139190611404565b60405180910390f35b6102246105d7565b005b610240600480360381019061023b9190611384565b6105ea565b60405161024d91906113dc565b60405180910390f35b61025e610785565b60405161026b91906114db565b60405180910390f35b61027c6107ad565b60405161028991906112d3565b60405180910390f35b6102ac60048036038101906102a79190611384565b61083d565b6040516102b991906113dc565b60405180910390f35b6102ca61085f565b6040516102d791906114db565b60405180910390f35b6102fa60048036038101906102f591906114f4565b610884565b6040516103079190611404565b60405180910390f35b61032a600480360381019061032591906114a1565b610906565b005b610346600480360381019061034191906114a1565b61098a565b005b6060600380546103579061155f565b80601f01602080910402602001604051908101604052809291908181526020018280546103839061155f565b80156103ce5780601f106103a5576101008083540402835291602001916103ce565b820191905f5260205f20905b8154815290600101906020018083116103b157829003601f168201915b5050505050905090565b5f806103e2610a7d565b90506103ef818585610a84565b600191505092915050565b5f600254905090565b5f8061040d610a7d565b905061041a858285610a96565b610425858585610b29565b60019150509392505050565b5f6012905090565b5f60065f9054906101000a900473ffffffffffffffffffffffffffffffffffffffff1673ffffffffffffffffffffffffffffffffffffffff163373ffffffffffffffffffffffffffffffffffffffff161415806104e257505f73ffffffffffffffffffffffffffffffffffffffff1660065f9054906101000a900473ffffffffffffffffffffffffffffffffffffffff1673ffffffffffffffffffffffffffffffffffffffff16145b15610519576040517f086efc9400000000000000000000000000000000000000000000000000000000815260040160405180910390fd5b5f73ffffffffffffffffffffffffffffffffffffffff168373ffffffffffffffffffffffffffffffffffffffff160361057e576040517f4780946600000000000000000000000000000000000000000000000000000000815260040160405180910390fd5b6105888383610c19565b6001905092915050565b5f805f8373ffffffffffffffffffffffffffffffffffffffff1673ffffffffffffffffffffffffffffffffffffffff1681526020019081526020015f20549050919050565b6105df610c98565b6105e85f610d1f565b565b5f60065f9054906101000a900473ffffffffffffffffffffffffffffffffffffffff1673ffffffffffffffffffffffffffffffffffffffff163373ffffffffffffffffffffffffffffffffffffffff1614158061069357505f73ffffffffffffffffffffffffffffffffffffffff1660065f9054906101000a900473ffffffffffffffffffffffffffffffffffffffff1673ffffffffffffffffffffffffffffffffffffffff16145b156106ca576040517f086efc9400000000000000000000000000000000000000000000000000000000815260040160405180910390fd5b5f73ffffffffffffffffffffffffffffffffffffffff168373ffffffffffffffffffffffffffffffffffffffff160361072f576040517f932472b500000000000000000000000000000000000000000000000000000000815260040160405180910390fd5b8161073984610592565b1015610771576040517f4eacfc1d00000000000000000000000000000000000000000000000000000000815260040160405180910390fd5b61077b8383610de2565b6001905092915050565b5f60055f9054906101000a900473ffffffffffffffffffffffffffffffffffffffff16905090565b6060600480546107bc9061155f565b80601f01602080910402602001604051908101604052809291908181526020018280546107e89061155f565b80156108335780601f1061080a57610100808354040283529160200191610833565b820191905f5260205f20905b81548152906001019060200180831161081657829003601f168201915b5050505050905090565b5f80610847610a7d565b9050610854818585610b29565b600191505092915050565b60065f9054906101000a900473ffffffffffffffffffffffffffffffffffffffff1681565b5f60015f8473ffffffffffffffffffffffffffffffffffffffff1673ffffffffffffffffffffffffffffffffffffffff1681526020019081526020015f205f8373ffffffffffffffffffffffffffffffffffffffff1673ffffffffffffffffffffffffffffffffffffffff1681526020019081526020015f2054905092915050565b61090e610c98565b5f73ffffffffffffffffffffffffffffffffffffffff168173ffffffffffffffffffffffffffffffffffffffff160361097e575f6040517f1e4fbdf700000000000000000000000000000000000000000000000000000000815260040161097591906114db565b60405180910390fd5b61098781610d1f565b50565b610992610c98565b5f73ffffffffffffffffffffffffffffffffffffffff168173ffffffffffffffffffffffffffffffffffffffff16036109f7576040517f9031562c00000000000000000000000000000000000000000000000000000000815260040160405180910390fd5b8060065f6101000a81548173ffffffffffffffffffffffffffffffffffffffff021916908373ffffffffffffffffffffffffffffffffffffffff1602179055508073ffffffffffffffffffffffffffffffffffffffff167f726b590ef91a8c76ad05bbe91a57ef84605276528f49cd47d787f558a4e755b660405160405180910390a250565b5f33905090565b610a918383836001610e61565b505050565b5f610aa18484610884565b90507fffffffffffffffffffffffffffffffffffffffffffffffffffffffffffffffff811015610b235781811015610b14578281836040517ffb8f41b2000000000000000000000000000000000000000000000000000000008152600401610b0b9392919061158f565b60405180910390fd5b610b2284848484035f610e61565b5b50505050565b5f73ffffffffffffffffffffffffffffffffffffffff168373ffffffffffffffffffffffffffffffffffffffff1603610b99575f6040517f96c6fd1e000000000000000000000000000000000000000000000000000000008152600401610b9091906114db565b60405180910390fd5b5f73ffffffffffffffffffffffffffffffffffffffff168273ffffffffffffffffffffffffffffffffffffffff1603610c09575f6040517fec442f05000000000000000000000000000000000000000000000000000000008152600401610c0091906114db565b60405180910390fd5b610c14838383611030565b505050565b5f73ffffffffffffffffffffffffffffffffffffffff168273ffffffffffffffffffffffffffffffffffffffff1603610c89575f6040517fec442f05000000000000000000000000000000000000000000000000000000008152600401610c8091906114db565b60405180910390fd5b610c945f8383611030565b5050565b610ca0610a7d565b73ffffffffffffffffffffffffffffffffffffffff16610cbe610785565b73ffffffffffffffffffffffffffffffffffffffff1614610d1d57610ce1610a7d565b6040517f118cdaa7000000000000000000000000000000000000000000000000000000008152600401610d1491906114db565b60405180910390fd5b565b5f60055f9054906101000a900473ffffffffffffffffffffffffffffffffffffffff1690508160055f6101000a81548173ffffffffffffffffffffffffffffffffffffffff021916908373ffffffffffffffffffffffffffffffffffffffff1602179055508173ffffffffffffffffffffffffffffffffffffffff168173ffffffffffffffffffffffffffffffffffffffff167f8be0079c531659141344cd1fd0a4f28419497f9722a3daafe3b4186f6b6457e060405160405180910390a35050565b5f73ffffffffffffffffffffffffffffffffffffffff168273ffffffffffffffffffffffffffffffffffffffff1603610e52575f6040517f96c6fd1e000000000000000000000000000000000000000000000000000000008152600401610e4991906114db565b60405180910390fd5b610e5d825f83611030565b5050565b5f73ffffffffffffffffffffffffffffffffffffffff168473ffffffffffffffffffffffffffffffffffffffff1603610ed1575f6040517fe602df05000000000000000000000000000000000000000000000000000000008152600401610ec891906114db565b60405180910390fd5b5f73ffffffffffffffffffffffffffffffffffffffff168373ffffffffffffffffffffffffffffffffffffffff1603610f41575f6040517f94280d62000000000000000000000000000000000000000000000000000000008152600401610f3891906114db565b60405180910390fd5b8160015f8673ffffffffffffffffffffffffffffffffffffffff1673ffffffffffffffffffffffffffffffffffffffff1681526020019081526020015f205f8573ffffffffffffffffffffffffffffffffffffffff1673ffffffffffffffffffffffffffffffffffffffff1681526020019081526020015f2081905550801561102a578273ffffffffffffffffffffffffffffffffffffffff168473ffffffffffffffffffffffffffffffffffffffff167f8c5be1e5ebec7d5bd14f71427d1e84f3dd0314c0f7b2291e5b200ac8c7c3b925846040516110219190611404565b60405180910390a35b50505050565b5f73ffffffffffffffffffffffffffffffffffffffff168373ffffffffffffffffffffffffffffffffffffffff1603611080578060025f82825461107491906115f1565b9250508190555061114e565b5f805f8573ffffffffffffffffffffffffffffffffffffffff1673ffffffffffffffffffffffffffffffffffffffff1681526020019081526020015f2054905081811015611109578381836040517fe450d38c0000000000000000000000000000000000000000000000000000000081526004016111009392919061158f565b60405180910390fd5b8181035f808673ffffffffffffffffffffffffffffffffffffffff1673ffffffffffffffffffffffffffffffffffffffff1681526020019081526020015f2081905550505b5f73ffffffffffffffffffffffffffffffffffffffff168273ffffffffffffffffffffffffffffffffffffffff1603611195578060025f82825403925050819055506111df565b805f808473ffffffffffffffffffffffffffffffffffffffff1673ffffffffffffffffffffffffffffffffffffffff1681526020019081526020015f205f82825401925050819055505b8173ffffffffffffffffffffffffffffffffffffffff168373ffffffffffffffffffffffffffffffffffffffff167fddf252ad1be2c89b69c2b068fc378daa952ba7f163c4a11628f55a4df523b3ef8360405161123c9190611404565b60405180910390a3505050565b5f81519050919050565b5f82825260208201905092915050565b5f5b83811015611280578082015181840152602081019050611265565b5f8484015250505050565b5f601f19601f8301169050919050565b5f6112a582611249565b6112af8185611253565b93506112bf818560208601611263565b6112c88161128b565b840191505092915050565b5f6020820190508181035f8301526112eb818461129b565b905092915050565b5f80fd5b5f73ffffffffffffffffffffffffffffffffffffffff82169050919050565b5f611320826112f7565b9050919050565b61133081611316565b811461133a575f80fd5b50565b5f8135905061134b81611327565b92915050565b5f819050919050565b61136381611351565b811461136d575f80fd5b50565b5f8135905061137e8161135a565b92915050565b5f806040838503121561139a576113996112f3565b5b5f6113a78582860161133d565b92505060206113b885828601611370565b9150509250929050565b5f8115159050919050565b6113d6816113c2565b82525050565b5f6020820190506113ef5f8301846113cd565b92915050565b6113fe81611351565b82525050565b5f6020820190506114175f8301846113f5565b92915050565b5f805f60608486031215611434576114336112f3565b5b5f6114418682870161133d565b93505060206114528682870161133d565b925050604061146386828701611370565b9150509250925092565b5f60ff82169050919050565b6114828161146d565b82525050565b5f60208201905061149b5f830184611479565b92915050565b5f602082840312156114b6576114b56112f3565b5b5f6114c38482850161133d565b91505092915050565b6114d581611316565b82525050565b5f6020820190506114ee5f8301846114cc565b92915050565b5f806040838503121561150a576115096112f3565b5b5f6115178582860161133d565b92505060206115288582860161133d565b9150509250929050565b7f4e487b71000000000000000000000000000000000000000000000000000000005f52602260045260245ffd5b5f600282049050600182168061157657607f821691505b60208210810361158957611588611532565b5b50919050565b5f6060820190506115a25f8301866114cc565b6115af60208301856113f5565b6115bc60408301846113f5565b949350505050565b7f4e487b71000000000000000000000000000000000000000000000000000000005f52601160045260245ffd5b5f6115fb82611351565b915061160683611351565b925082820190508082111561161e5761161d6115c4565b5b9291505056fea26469706673582212206a83eb2a75cb785104b08d0454eb762d5e465ef41a85ec31fb8602c51b3d563e64736f6c63430008140033","linkReferences":{}},"methodIdentifiers":{"allowance(address,address)":"dd62ed3e","approve(address,uint256)":"095ea7b3","balanceOf(address)":"70a08231","burnFrom(address,uint256)":"79cc6790","decimals()":"313ce567","mint(address,uint256)":"40c10f19","name()":"06fdde03","owner()":"8da5cb5b","renounceOwnership()":"715018a6","s_minter()":"d3cfee8b","setMinter(address)":"fca3b5aa","symbol()":"95d89b41","totalSupply()":"18160ddd","transfer(address,uint256)":"a9059cbb","transferFrom(address,address,uint256)":"23b872dd","transferOwnership(address)":"f2fde38b"},"id":31}