{"abi":[{"type":"function","name":"deployAllTokens","inputs":[],"outputs":[{"name":"dai","type":"address","internalType":"address"},{"name":"usdc","type":"address","internalType":"address"},{"name":"usdt","type":"address","internalType":"address"}],"stateMutability":"nonpayable"},{"type":"function","name":"deployToken","inputs":[{"name":"tokenType","type":"string","internalType":"string"}],"outputs":[{"name":"token","type":"address","internalType":"address"}],"stateMutability":"nonpayable"},{"type":"event","name":"TokenDeployed","inputs":[{"name":"tokenType","type":"string","indexed":false,"internalType":"string"},{"name":"tokenAddress","type":"address","indexed":false,"internalType":"address"}],"anonymous":false},{"type":"error","name":"TokenFactory_UnsupportedToken","inputs":[{"name":"tokenType","type":"string","internalType":"string"}]}],"bytecode":{"object":"0x608060405234801561000f575f80fd5b50615b498061001d5f395ff3fe608060405234801562000010575f80fd5b506004361062000038575f3560e01c806358ace260146200003c5780638c7605731462000060575b5f80fd5b6200004662000096565b6040516200005793929190620003f1565b60405180910390f35b6200007e600480360381019062000078919062000595565b620001ca565b6040516200008d9190620005e4565b60405180910390f35b5f805f604051620000a79062000384565b604051809103905ff080158015620000c1573d5f803e3d5ffd5b509250604051620000d29062000392565b604051809103905ff080158015620000ec573d5f803e3d5ffd5b509150604051620000fd90620003a0565b604051809103905ff08015801562000117573d5f803e3d5ffd5b5090507fbf90b5a1ec9763e8bf4b9245cef0c28db92bab309fc2c5177f17814f38246938836040516200014b91906200065d565b60405180910390a17fbf90b5a1ec9763e8bf4b9245cef0c28db92bab309fc2c5177f17814f3824693882604051620001849190620006db565b60405180910390a17fbf90b5a1ec9763e8bf4b9245cef0c28db92bab309fc2c5177f17814f3824693881604051620001bd919062000759565b60405180910390a1909192565b5f8082604051602001620001df9190620007fd565b6040516020818303038152906040528051906020012090507fa5e92f3efb6826155f1f728e162af9d7cda33a574a1153b58f03ea01cc37e568810362000250576040516200022d9062000384565b604051809103905ff08015801562000247573d5f803e3d5ffd5b50915062000343565b7fd6aca1be9729c13d677335161321649cccae6a591554772516700f986f942eaa8103620002a957604051620002869062000392565b604051809103905ff080158015620002a0573d5f803e3d5ffd5b50915062000342565b7f8b1a1d9c2b109e527c9134b25b1a1833b16b6594f92daa9f6d9b7a6024bce9d081036200030257604051620002df90620003a0565b604051809103905ff080158015620002f9573d5f803e3d5ffd5b50915062000341565b826040517f0a345f2100000000000000000000000000000000000000000000000000000000815260040162000338919062000855565b60405180910390fd5b5b5b7fbf90b5a1ec9763e8bf4b9245cef0c28db92bab309fc2c5177f17814f3824693883836040516200037692919062000877565b60405180910390a150919050565b61190e80620008aa83390190565b61192480620021b883390190565b6120388062003adc83390190565b5f73ffffffffffffffffffffffffffffffffffffffff82169050919050565b5f620003d982620003ae565b9050919050565b620003eb81620003cd565b82525050565b5f606082019050620004065f830186620003e0565b620004156020830185620003e0565b620004246040830184620003e0565b949350505050565b5f604051905090565b5f80fd5b5f80fd5b5f80fd5b5f80fd5b5f601f19601f8301169050919050565b7f4e487b71000000000000000000000000000000000000000000000000000000005f52604160045260245ffd5b6200048d8262000445565b810181811067ffffffffffffffff82111715620004af57620004ae62000455565b5b80604052505050565b5f620004c36200042c565b9050620004d1828262000482565b919050565b5f67ffffffffffffffff821115620004f357620004f262000455565b5b620004fe8262000445565b9050602081019050919050565b828183375f83830152505050565b5f6200052f6200052984620004d6565b620004b8565b9050828152602081018484840111156200054e576200054d62000441565b5b6200055b8482856200050b565b509392505050565b5f82601f8301126200057a57620005796200043d565b5b81356200058c84826020860162000519565b91505092915050565b5f60208284031215620005ad57620005ac62000435565b5b5f82013567ffffffffffffffff811115620005cd57620005cc62000439565b5b620005db8482850162000563565b91505092915050565b5f602082019050620005f95f830184620003e0565b92915050565b5f82825260208201905092915050565b7f44414900000000000000000000000000000000000000000000000000000000005f82015250565b5f62000645600383620005ff565b915062000652826200060f565b602082019050919050565b5f6040820190508181035f830152620006768162000637565b9050620006876020830184620003e0565b92915050565b7f55534443000000000000000000000000000000000000000000000000000000005f82015250565b5f620006c3600483620005ff565b9150620006d0826200068d565b602082019050919050565b5f6040820190508181035f830152620006f481620006b5565b9050620007056020830184620003e0565b92915050565b7f55534454000000000000000000000000000000000000000000000000000000005f82015250565b5f62000741600483620005ff565b91506200074e826200070b565b602082019050919050565b5f6040820190508181035f830152620007728162000733565b9050620007836020830184620003e0565b92915050565b5f81519050919050565b5f81905092915050565b5f5b83811015620007bc5780820151818401526020810190506200079f565b5f8484015250505050565b5f620007d38262000789565b620007df818562000793565b9350620007f18185602086016200079d565b80840191505092915050565b5f6200080a8284620007c7565b915081905092915050565b5f620008218262000789565b6200082d8185620005ff565b93506200083f8185602086016200079d565b6200084a8162000445565b840191505092915050565b5f6020820190508181035f8301526200086f818462000815565b905092915050565b5f6040820190508181035f83015262000891818562000815565b9050620008a26020830184620003e0565b939250505056fe608060405234801562000010575f80fd5b506040518060400160405280600e81526020017f44414920537461626c65636f696e0000000000000000000000000000000000008152506040518060400160405280600381526020017f444149000000000000000000000000000000000000000000000000000000000081525081600390816200008e9190620005ec565b508060049081620000a09190620005ec565b505050620000d4336012600a620000b8919062000859565b620f4240620000c89190620008a9565b620000da60201b60201c565b620009f2565b5f73ffffffffffffffffffffffffffffffffffffffff168273ffffffffffffffffffffffffffffffffffffffff16036200014d575f6040517fec442f0500000000000000000000000000000000000000000000000000000000815260040162000144919062000936565b60405180910390fd5b620001605f83836200016460201b60201c565b5050565b5f73ffffffffffffffffffffffffffffffffffffffff168373ffffffffffffffffffffffffffffffffffffffff1603620001b8578060025f828254620001ab919062000951565b9250508190555062000289565b5f805f8573ffffffffffffffffffffffffffffffffffffffff1673ffffffffffffffffffffffffffffffffffffffff1681526020019081526020015f205490508181101562000244578381836040517fe450d38c0000000000000000000000000000000000000000000000000000000081526004016200023b939291906200099c565b60405180910390fd5b8181035f808673ffffffffffffffffffffffffffffffffffffffff1673ffffffffffffffffffffffffffffffffffffffff1681526020019081526020015f2081905550505b5f73ffffffffffffffffffffffffffffffffffffffff168273ffffffffffffffffffffffffffffffffffffffff1603620002d2578060025f82825403925050819055506200031c565b805f808473ffffffffffffffffffffffffffffffffffffffff1673ffffffffffffffffffffffffffffffffffffffff1681526020019081526020015f205f82825401925050819055505b8173ffffffffffffffffffffffffffffffffffffffff168373ffffffffffffffffffffffffffffffffffffffff167fddf252ad1be2c89b69c2b068fc378daa952ba7f163c4a11628f55a4df523b3ef836040516200037b9190620009d7565b60405180910390a3505050565b5f81519050919050565b7f4e487b71000000000000000000000000000000000000000000000000000000005f52604160045260245ffd5b7f4e487b71000000000000000000000000000000000000000000000000000000005f52602260045260245ffd5b5f60028204905060018216806200040457607f821691505b6020821081036200041a5762000419620003bf565b5b50919050565b5f819050815f5260205f209050919050565b5f6020601f8301049050919050565b5f82821b905092915050565b5f600883026200047e7fffffffffffffffffffffffffffffffffffffffffffffffffffffffffffffffff8262000441565b6200048a868362000441565b95508019841693508086168417925050509392505050565b5f819050919050565b5f819050919050565b5f620004d4620004ce620004c884620004a2565b620004ab565b620004a2565b9050919050565b5f819050919050565b620004ef83620004b4565b62000507620004fe82620004db565b8484546200044d565b825550505050565b5f90565b6200051d6200050f565b6200052a818484620004e4565b505050565b5b818110156200055157620005455f8262000513565b60018101905062000530565b5050565b601f821115620005a0576200056a8162000420565b620005758462000432565b8101602085101562000585578190505b6200059d620005948562000432565b8301826200052f565b50505b505050565b5f82821c905092915050565b5f620005c25f1984600802620005a5565b1980831691505092915050565b5f620005dc8383620005b1565b9150826002028217905092915050565b620005f78262000388565b67ffffffffffffffff81111562000613576200061262000392565b5b6200061f8254620003ec565b6200062c82828562000555565b5f60209050601f83116001811462000662575f84156200064d578287015190505b620006598582620005cf565b865550620006c8565b601f198416620006728662000420565b5f5b828110156200069b5784890151825560018201915060208501945060208101905062000674565b86831015620006bb5784890151620006b7601f891682620005b1565b8355505b6001600288020188555050505b505050505050565b7f4e487b71000000000000000000000000000000000000000000000000000000005f52601160045260245ffd5b5f8160011c9050919050565b5f808291508390505b60018511156200075a57808604811115620007325762000731620006d0565b5b6001851615620007425780820291505b80810290506200075285620006fd565b945062000712565b94509492505050565b5f8262000774576001905062000846565b8162000783575f905062000846565b81600181146200079c5760028114620007a757620007dd565b600191505062000846565b60ff841115620007bc57620007bb620006d0565b5b8360020a915084821115620007d657620007d5620006d0565b5b5062000846565b5060208310610133831016604e8410600b8410161715620008175782820a905083811115620008115762000810620006d0565b5b62000846565b62000826848484600162000709565b9250905081840481111562000840576200083f620006d0565b5b81810290505b9392505050565b5f60ff82169050919050565b5f6200086582620004a2565b915062000872836200084d565b9250620008a17fffffffffffffffffffffffffffffffffffffffffffffffffffffffffffffffff848462000763565b905092915050565b5f620008b582620004a2565b9150620008c283620004a2565b9250828202620008d281620004a2565b91508282048414831517620008ec57620008eb620006d0565b5b5092915050565b5f73ffffffffffffffffffffffffffffffffffffffff82169050919050565b5f6200091e82620008f3565b9050919050565b620009308162000912565b82525050565b5f6020820190506200094b5f83018462000925565b92915050565b5f6200095d82620004a2565b91506200096a83620004a2565b9250828201905080821115620009855762000984620006d0565b5b92915050565b6200099681620004a2565b82525050565b5f606082019050620009b15f83018662000925565b620009c060208301856200098b565b620009cf60408301846200098b565b949350505050565b5f602082019050620009ec5f8301846200098b565b92915050565b610f0e8062000a005f395ff3fe608060405234801561000f575f80fd5b50600436106100b2575f3560e01c8063313ce5671161006f578063313ce5671461018e57806340c10f19146101ac57806370a08231146101c857806395d89b41146101f8578063a9059cbb14610216578063dd62ed3e14610246576100b2565b806306fdde03146100b6578063095ea7b3146100d457806318160ddd1461010457806323b872dd146101225780632e0f2625146101525780632ff2e9dc14610170575b5f80fd5b6100be610276565b6040516100cb9190610b87565b60405180910390f35b6100ee60048036038101906100e99190610c38565b610306565b6040516100fb9190610c90565b60405180910390f35b61010c610328565b6040516101199190610cb8565b60405180910390f35b61013c60048036038101906101379190610cd1565b610331565b6040516101499190610c90565b60405180910390f35b61015a61035f565b6040516101679190610d3c565b60405180910390f35b610178610364565b6040516101859190610cb8565b60405180910390f35b61019661036b565b6040516101a39190610d3c565b60405180910390f35b6101c660048036038101906101c19190610c38565b610373565b005b6101e260048036038101906101dd9190610d55565b610381565b6040516101ef9190610cb8565b60405180910390f35b6102006103c6565b60405161020d9190610b87565b60405180910390f35b610230600480360381019061022b9190610c38565b610456565b60405161023d9190610c90565b60405180910390f35b610260600480360381019061025b9190610d80565b610478565b60405161026d9190610cb8565b60405180910390f35b60606003805461028590610deb565b80601f01602080910402602001604051908101604052809291908181526020018280546102b190610deb565b80156102fc5780601f106102d3576101008083540402835291602001916102fc565b820191905f5260205f20905b8154815290600101906020018083116102df57829003601f168201915b5050505050905090565b5f806103106104fa565b905061031d818585610501565b600191505092915050565b5f600254905090565b5f8061033b6104fa565b9050610348858285610513565b6103538585856105a6565b60019150509392505050565b601281565b620f424081565b5f6012905090565b61037d8282610696565b5050565b5f805f8373ffffffffffffffffffffffffffffffffffffffff1673ffffffffffffffffffffffffffffffffffffffff1681526020019081526020015f20549050919050565b6060600480546103d590610deb565b80601f016020809104026020016040519081016040528092919081815260200182805461040190610deb565b801561044c5780601f106104235761010080835404028352916020019161044c565b820191905f5260205f20905b81548152906001019060200180831161042f57829003601f168201915b5050505050905090565b5f806104606104fa565b905061046d8185856105a6565b600191505092915050565b5f60015f8473ffffffffffffffffffffffffffffffffffffffff1673ffffffffffffffffffffffffffffffffffffffff1681526020019081526020015f205f8373ffffffffffffffffffffffffffffffffffffffff1673ffffffffffffffffffffffffffffffffffffffff1681526020019081526020015f2054905092915050565b5f33905090565b61050e8383836001610715565b505050565b5f61051e8484610478565b90507fffffffffffffffffffffffffffffffffffffffffffffffffffffffffffffffff8110156105a05781811015610591578281836040517ffb8f41b200000000000000000000000000000000000000000000000000000000815260040161058893929190610e2a565b60405180910390fd5b61059f84848484035f610715565b5b50505050565b5f73ffffffffffffffffffffffffffffffffffffffff168373ffffffffffffffffffffffffffffffffffffffff1603610616575f6040517f96c6fd1e00000000000000000000000000000000000000000000000000000000815260040161060d9190610e5f565b60405180910390fd5b5f73ffffffffffffffffffffffffffffffffffffffff168273ffffffffffffffffffffffffffffffffffffffff1603610686575f6040517fec442f0500000000000000000000000000000000000000000000000000000000815260040161067d9190610e5f565b60405180910390fd5b6106918383836108e4565b505050565b5f73ffffffffffffffffffffffffffffffffffffffff168273ffffffffffffffffffffffffffffffffffffffff1603610706575f6040517fec442f050000000000000000000000000000000000000000000000000000000081526004016106fd9190610e5f565b60405180910390fd5b6107115f83836108e4565b5050565b5f73ffffffffffffffffffffffffffffffffffffffff168473ffffffffffffffffffffffffffffffffffffffff1603610785575f6040517fe602df0500000000000000000000000000000000000000000000000000000000815260040161077c9190610e5f565b60405180910390fd5b5f73ffffffffffffffffffffffffffffffffffffffff168373ffffffffffffffffffffffffffffffffffffffff16036107f5575f6040517f94280d620000000000000000000000000000000000000000000000000000000081526004016107ec9190610e5f565b60405180910390fd5b8160015f8673ffffffffffffffffffffffffffffffffffffffff1673ffffffffffffffffffffffffffffffffffffffff1681526020019081526020015f205f8573ffffffffffffffffffffffffffffffffffffffff1673ffffffffffffffffffffffffffffffffffffffff1681526020019081526020015f208190555080156108de578273ffffffffffffffffffffffffffffffffffffffff168473ffffffffffffffffffffffffffffffffffffffff167f8c5be1e5ebec7d5bd14f71427d1e84f3dd0314c0f7b2291e5b200ac8c7c3b925846040516108d59190610cb8565b60405180910390a35b50505050565b5f73ffffffffffffffffffffffffffffffffffffffff168373ffffffffffffffffffffffffffffffffffffffff1603610934578060025f8282546109289190610ea5565b92505081905550610a02565b5f805f8573ffffffffffffffffffffffffffffffffffffffff1673ffffffffffffffffffffffffffffffffffffffff1681526020019081526020015f20549050818110156109bd578381836040517fe450d38c0000000000000000000000000000000000000000000000000000000081526004016109b493929190610e2a565b60405180910390fd5b8181035f808673ffffffffffffffffffffffffffffffffffffffff1673ffffffffffffffffffffffffffffffffffffffff1681526020019081526020015f2081905550505b5f73ffffffffffffffffffffffffffffffffffffffff168273ffffffffffffffffffffffffffffffffffffffff1603610a49578060025f8282540392505081905550610a93565b805f808473ffffffffffffffffffffffffffffffffffffffff1673ffffffffffffffffffffffffffffffffffffffff1681526020019081526020015f205f82825401925050819055505b8173ffffffffffffffffffffffffffffffffffffffff168373ffffffffffffffffffffffffffffffffffffffff167fddf252ad1be2c89b69c2b068fc378daa952ba7f163c4a11628f55a4df523b3ef83604051610af09190610cb8565b60405180910390a3505050565b5f81519050919050565b5f82825260208201905092915050565b5f5b83811015610b34578082015181840152602081019050610b19565b5f8484015250505050565b5f601f19601f8301169050919050565b5f610b5982610afd565b610b638185610b07565b9350610b73818560208601610b17565b610b7c81610b3f565b840191505092915050565b5f6020820190508181035f830152610b9f8184610b4f565b905092915050565b5f80fd5b5f73ffffffffffffffffffffffffffffffffffffffff82169050919050565b5f610bd482610bab565b9050919050565b610be481610bca565b8114610bee575f80fd5b50565b5f81359050610bff81610bdb565b92915050565b5f819050919050565b610c1781610c05565b8114610c21575f80fd5b50565b5f81359050610c3281610c0e565b92915050565b5f8060408385031215610c4e57610c4d610ba7565b5b5f610c5b85828601610bf1565b9250506020610c6c85828601610c24565b9150509250929050565b5f8115159050919050565b610c8a81610c76565b82525050565b5f602082019050610ca35f830184610c81565b92915050565b610cb281610c05565b82525050565b5f602082019050610ccb5f830184610ca9565b92915050565b5f805f60608486031215610ce857610ce7610ba7565b5b5f610cf586828701610bf1565b9350506020610d0686828701610bf1565b9250506040610d1786828701610c24565b9150509250925092565b5f60ff82169050919050565b610d3681610d21565b82525050565b5f602082019050610d4f5f830184610d2d565b92915050565b5f60208284031215610d6a57610d69610ba7565b5b5f610d7784828501610bf1565b91505092915050565b5f8060408385031215610d9657610d95610ba7565b5b5f610da385828601610bf1565b9250506020610db485828601610bf1565b9150509250929050565b7f4e487b71000000000000000000000000000000000000000000000000000000005f52602260045260245ffd5b5f6002820490506001821680610e0257607f821691505b602082108103610e1557610e14610dbe565b5b50919050565b610e2481610bca565b82525050565b5f606082019050610e3d5f830186610e1b565b610e4a6020830185610ca9565b610e576040830184610ca9565b949350505050565b5f602082019050610e725f830184610e1b565b92915050565b7f4e487b71000000000000000000000000000000000000000000000000000000005f52601160045260245ffd5b5f610eaf82610c05565b9150610eba83610c05565b9250828201905080821115610ed257610ed1610e78565b5b9291505056fea2646970667358221220f9e48cdb4947d25cf08fddfc3723bb1062c08f2167799ba2f60a55f89c0807cf64736f6c63430008140033608060405234801562000010575f80fd5b506040518060400160405280600881526020017f55534420436f696e0000000000000000000000000000000000000000000000008152506040518060400160405280600481526020017f555344430000000000000000000000000000000000000000000000000000000081525081600390816200008e919062000602565b508060049081620000a0919062000602565b505050620000e233620000b8620000e860201b60201c565b600a620000c691906200086f565b620f4240620000d69190620008bf565b620000f060201b60201c565b62000a08565b5f6006905090565b5f73ffffffffffffffffffffffffffffffffffffffff168273ffffffffffffffffffffffffffffffffffffffff160362000163575f6040517fec442f050000000000000000000000000000000000000000000000000000000081526004016200015a91906200094c565b60405180910390fd5b620001765f83836200017a60201b60201c565b5050565b5f73ffffffffffffffffffffffffffffffffffffffff168373ffffffffffffffffffffffffffffffffffffffff1603620001ce578060025f828254620001c1919062000967565b925050819055506200029f565b5f805f8573ffffffffffffffffffffffffffffffffffffffff1673ffffffffffffffffffffffffffffffffffffffff1681526020019081526020015f20549050818110156200025a578381836040517fe450d38c0000000000000000000000000000000000000000000000000000000081526004016200025193929190620009b2565b60405180910390fd5b8181035f808673ffffffffffffffffffffffffffffffffffffffff1673ffffffffffffffffffffffffffffffffffffffff1681526020019081526020015f2081905550505b5f73ffffffffffffffffffffffffffffffffffffffff168273ffffffffffffffffffffffffffffffffffffffff1603620002e8578060025f828254039250508190555062000332565b805f808473ffffffffffffffffffffffffffffffffffffffff1673ffffffffffffffffffffffffffffffffffffffff1681526020019081526020015f205f82825401925050819055505b8173ffffffffffffffffffffffffffffffffffffffff168373ffffffffffffffffffffffffffffffffffffffff167fddf252ad1be2c89b69c2b068fc378daa952ba7f163c4a11628f55a4df523b3ef83604051620003919190620009ed565b60405180910390a3505050565b5f81519050919050565b7f4e487b71000000000000000000000000000000000000000000000000000000005f52604160045260245ffd5b7f4e487b71000000000000000000000000000000000000000000000000000000005f52602260045260245ffd5b5f60028204905060018216806200041a57607f821691505b60208210810362000430576200042f620003d5565b5b50919050565b5f819050815f5260205f209050919050565b5f6020601f8301049050919050565b5f82821b905092915050565b5f60088302620004947fffffffffffffffffffffffffffffffffffffffffffffffffffffffffffffffff8262000457565b620004a0868362000457565b95508019841693508086168417925050509392505050565b5f819050919050565b5f819050919050565b5f620004ea620004e4620004de84620004b8565b620004c1565b620004b8565b9050919050565b5f819050919050565b6200050583620004ca565b6200051d6200051482620004f1565b84845462000463565b825550505050565b5f90565b6200053362000525565b62000540818484620004fa565b505050565b5b8181101562000567576200055b5f8262000529565b60018101905062000546565b5050565b601f821115620005b657620005808162000436565b6200058b8462000448565b810160208510156200059b578190505b620005b3620005aa8562000448565b83018262000545565b50505b505050565b5f82821c905092915050565b5f620005d85f1984600802620005bb565b1980831691505092915050565b5f620005f28383620005c7565b9150826002028217905092915050565b6200060d826200039e565b67ffffffffffffffff811115620006295762000628620003a8565b5b62000635825462000402565b620006428282856200056b565b5f60209050601f83116001811462000678575f841562000663578287015190505b6200066f8582620005e5565b865550620006de565b601f198416620006888662000436565b5f5b82811015620006b1578489015182556001820191506020850194506020810190506200068a565b86831015620006d15784890151620006cd601f891682620005c7565b8355505b6001600288020188555050505b505050505050565b7f4e487b71000000000000000000000000000000000000000000000000000000005f52601160045260245ffd5b5f8160011c9050919050565b5f808291508390505b60018511156200077057808604811115620007485762000747620006e6565b5b6001851615620007585780820291505b8081029050620007688562000713565b945062000728565b94509492505050565b5f826200078a57600190506200085c565b8162000799575f90506200085c565b8160018114620007b25760028114620007bd57620007f3565b60019150506200085c565b60ff841115620007d257620007d1620006e6565b5b8360020a915084821115620007ec57620007eb620006e6565b5b506200085c565b5060208310610133831016604e8410600b84101617156200082d5782820a905083811115620008275762000826620006e6565b5b6200085c565b6200083c84848460016200071f565b92509050818404811115620008565762000855620006e6565b5b81810290505b9392505050565b5f60ff82169050919050565b5f6200087b82620004b8565b9150620008888362000863565b9250620008b77fffffffffffffffffffffffffffffffffffffffffffffffffffffffffffffffff848462000779565b905092915050565b5f620008cb82620004b8565b9150620008d883620004b8565b9250828202620008e881620004b8565b91508282048414831517620009025762000901620006e6565b5b5092915050565b5f73ffffffffffffffffffffffffffffffffffffffff82169050919050565b5f620009348262000909565b9050919050565b620009468162000928565b82525050565b5f602082019050620009615f8301846200093b565b92915050565b5f6200097382620004b8565b91506200098083620004b8565b92508282019050808211156200099b576200099a620006e6565b5b92915050565b620009ac81620004b8565b82525050565b5f606082019050620009c75f8301866200093b565b620009d66020830185620009a1565b620009e56040830184620009a1565b949350505050565b5f60208201905062000a025f830184620009a1565b92915050565b610f0e8062000a165f395ff3fe608060405234801561000f575f80fd5b50600436106100b2575f3560e01c8063313ce5671161006f578063313ce5671461018e57806340c10f19146101ac57806370a08231146101c857806395d89b41146101f8578063a9059cbb14610216578063dd62ed3e14610246576100b2565b806306fdde03146100b6578063095ea7b3146100d457806318160ddd1461010457806323b872dd146101225780632e0f2625146101525780632ff2e9dc14610170575b5f80fd5b6100be610276565b6040516100cb9190610b87565b60405180910390f35b6100ee60048036038101906100e99190610c38565b610306565b6040516100fb9190610c90565b60405180910390f35b61010c610328565b6040516101199190610cb8565b60405180910390f35b61013c60048036038101906101379190610cd1565b610331565b6040516101499190610c90565b60405180910390f35b61015a61035f565b6040516101679190610d3c565b60405180910390f35b610178610364565b6040516101859190610cb8565b60405180910390f35b61019661036b565b6040516101a39190610d3c565b60405180910390f35b6101c660048036038101906101c19190610c38565b610373565b005b6101e260048036038101906101dd9190610d55565b610381565b6040516101ef9190610cb8565b60405180910390f35b6102006103c6565b60405161020d9190610b87565b60405180910390f35b610230600480360381019061022b9190610c38565b610456565b60405161023d9190610c90565b60405180910390f35b610260600480360381019061025b9190610d80565b610478565b60405161026d9190610cb8565b60405180910390f35b60606003805461028590610deb565b80601f01602080910402602001604051908101604052809291908181526020018280546102b190610deb565b80156102fc5780601f106102d3576101008083540402835291602001916102fc565b820191905f5260205f20905b8154815290600101906020018083116102df57829003601f168201915b5050505050905090565b5f806103106104fa565b905061031d818585610501565b600191505092915050565b5f600254905090565b5f8061033b6104fa565b9050610348858285610513565b6103538585856105a6565b60019150509392505050565b600681565b620f424081565b5f6006905090565b61037d8282610696565b5050565b5f805f8373ffffffffffffffffffffffffffffffffffffffff1673ffffffffffffffffffffffffffffffffffffffff1681526020019081526020015f20549050919050565b6060600480546103d590610deb565b80601f016020809104026020016040519081016040528092919081815260200182805461040190610deb565b801561044c5780601f106104235761010080835404028352916020019161044c565b820191905f5260205f20905b81548152906001019060200180831161042f57829003601f168201915b5050505050905090565b5f806104606104fa565b905061046d8185856105a6565b600191505092915050565b5f60015f8473ffffffffffffffffffffffffffffffffffffffff1673ffffffffffffffffffffffffffffffffffffffff1681526020019081526020015f205f8373ffffffffffffffffffffffffffffffffffffffff1673ffffffffffffffffffffffffffffffffffffffff1681526020019081526020015f2054905092915050565b5f33905090565b61050e8383836001610715565b505050565b5f61051e8484610478565b90507fffffffffffffffffffffffffffffffffffffffffffffffffffffffffffffffff8110156105a05781811015610591578281836040517ffb8f41b200000000000000000000000000000000000000000000000000000000815260040161058893929190610e2a565b60405180910390fd5b61059f84848484035f610715565b5b50505050565b5f73ffffffffffffffffffffffffffffffffffffffff168373ffffffffffffffffffffffffffffffffffffffff1603610616575f6040517f96c6fd1e00000000000000000000000000000000000000000000000000000000815260040161060d9190610e5f565b60405180910390fd5b5f73ffffffffffffffffffffffffffffffffffffffff168273ffffffffffffffffffffffffffffffffffffffff1603610686575f6040517fec442f0500000000000000000000000000000000000000000000000000000000815260040161067d9190610e5f565b60405180910390fd5b6106918383836108e4565b505050565b5f73ffffffffffffffffffffffffffffffffffffffff168273ffffffffffffffffffffffffffffffffffffffff1603610706575f6040517fec442f050000000000000000000000000000000000000000000000000000000081526004016106fd9190610e5f565b60405180910390fd5b6107115f83836108e4565b5050565b5f73ffffffffffffffffffffffffffffffffffffffff168473ffffffffffffffffffffffffffffffffffffffff1603610785575f6040517fe602df0500000000000000000000000000000000000000000000000000000000815260040161077c9190610e5f565b60405180910390fd5b5f73ffffffffffffffffffffffffffffffffffffffff168373ffffffffffffffffffffffffffffffffffffffff16036107f5575f6040517f94280d620000000000000000000000000000000000000000000000000000000081526004016107ec9190610e5f565b60405180910390fd5b8160015f8673ffffffffffffffffffffffffffffffffffffffff1673ffffffffffffffffffffffffffffffffffffffff1681526020019081526020015f205f8573ffffffffffffffffffffffffffffffffffffffff1673ffffffffffffffffffffffffffffffffffffffff1681526020019081526020015f208190555080156108de578273ffffffffffffffffffffffffffffffffffffffff168473ffffffffffffffffffffffffffffffffffffffff167f8c5be1e5ebec7d5bd14f71427d1e84f3dd0314c0f7b2291e5b200ac8c7c3b925846040516108d59190610cb8565b60405180910390a35b50505050565b5f73ffffffffffffffffffffffffffffffffffffffff168373ffffffffffffffffffffffffffffffffffffffff1603610934578060025f8282546109289190610ea5565b92505081905550610a02565b5f805f8573ffffffffffffffffffffffffffffffffffffffff1673ffffffffffffffffffffffffffffffffffffffff1681526020019081526020015f20549050818110156109bd578381836040517fe450d38c0000000000000000000000000000000000000000000000000000000081526004016109b493929190610e2a565b60405180910390fd5b8181035f808673ffffffffffffffffffffffffffffffffffffffff1673ffffffffffffffffffffffffffffffffffffffff1681526020019081526020015f2081905550505b5f73ffffffffffffffffffffffffffffffffffffffff168273ffffffffffffffffffffffffffffffffffffffff1603610a49578060025f8282540392505081905550610a93565b805f808473ffffffffffffffffffffffffffffffffffffffff1673ffffffffffffffffffffffffffffffffffffffff1681526020019081526020015f205f82825401925050819055505b8173ffffffffffffffffffffffffffffffffffffffff168373ffffffffffffffffffffffffffffffffffffffff167fddf252ad1be2c89b69c2b068fc378daa952ba7f163c4a11628f55a4df523b3ef83604051610af09190610cb8565b60405180910390a3505050565b5f81519050919050565b5f82825260208201905092915050565b5f5b83811015610b34578082015181840152602081019050610b19565b5f8484015250505050565b5f601f19601f8301169050919050565b5f610b5982610afd565b610b638185610b07565b9350610b73818560208601610b17565b610b7c81610b3f565b840191505092915050565b5f6020820190508181035f830152610b9f8184610b4f565b905092915050565b5f80fd5b5f73ffffffffffffffffffffffffffffffffffffffff82169050919050565b5f610bd482610bab565b9050919050565b610be481610bca565b8114610bee575f80fd5b50565b5f81359050610bff81610bdb565b92915050565b5f819050919050565b610c1781610c05565b8114610c21575f80fd5b50565b5f81359050610c3281610c0e565b92915050565b5f8060408385031215610c4e57610c4d610ba7565b5b5f610c5b85828601610bf1565b9250506020610c6c85828601610c24565b9150509250929050565b5f8115159050919050565b610c8a81610c76565b82525050565b5f602082019050610ca35f830184610c81565b92915050565b610cb281610c05565b82525050565b5f602082019050610ccb5f830184610ca9565b92915050565b5f805f60608486031215610ce857610ce7610ba7565b5b5f610cf586828701610bf1565b9350506020610d0686828701610bf1565b9250506040610d1786828701610c24565b9150509250925092565b5f60ff82169050919050565b610d3681610d21565b82525050565b5f602082019050610d4f5f830184610d2d565b92915050565b5f60208284031215610d6a57610d69610ba7565b5b5f610d7784828501610bf1565b91505092915050565b5f8060408385031215610d9657610d95610ba7565b5b5f610da385828601610bf1565b9250506020610db485828601610bf1565b9150509250929050565b7f4e487b71000000000000000000000000000000000000000000000000000000005f52602260045260245ffd5b5f6002820490506001821680610e0257607f821691505b602082108103610e1557610e14610dbe565b5b50919050565b610e2481610bca565b82525050565b5f606082019050610e3d5f830186610e1b565b610e4a6020830185610ca9565b610e576040830184610ca9565b949350505050565b5f602082019050610e725f830184610e1b565b92915050565b7f4e487b71000000000000000000000000000000000000000000000000000000005f52601160045260245ffd5b5f610eaf82610c05565b9150610eba83610c05565b9250828201905080821115610ed257610ed1610e78565b5b9291505056fea2646970667358221220f32d788d2c9910d2a5a494c73be446677ca3bcf4620fd7f9ed175ea75541bbc964736f6c6343000814003360806040525f60055534801562000014575f80fd5b506040518060400160405280600a81526020017f54657468657220555344000000000000000000000000000000000000000000008152506040518060400160405280600481526020017f5553445400000000000000000000000000000000000000000000000000000000815250816003908162000092919062000737565b508060049081620000a4919062000737565b505050620000d8336006600a620000bc9190620009a4565b620f4240620000cc9190620009f4565b6200011e60201b60201c565b3360065f6101000a81548173ffffffffffffffffffffffffffffffffffffffff021916908373ffffffffffffffffffffffffffffffffffffffff16021790555062000bdb565b5f73ffffffffffffffffffffffffffffffffffffffff168273ffffffffffffffffffffffffffffffffffffffff160362000191575f6040517fec442f0500000000000000000000000000000000000000000000000000000000815260040162000188919062000a81565b60405180910390fd5b620001a45f8383620001a860201b60201c565b5050565b5f73ffffffffffffffffffffffffffffffffffffffff168373ffffffffffffffffffffffffffffffffffffffff16141580156200021157505f73ffffffffffffffffffffffffffffffffffffffff168273ffffffffffffffffffffffffffffffffffffffff1614155b80156200021f57505f600554115b1562000297575f61271060055483620002399190620009f4565b62000245919062000ac9565b90505f8111156200029557620002848460065f9054906101000a900473ffffffffffffffffffffffffffffffffffffffff1683620002af60201b60201c565b808262000292919062000b00565b91505b505b620002aa838383620002af60201b60201c565b505050565b5f73ffffffffffffffffffffffffffffffffffffffff168373ffffffffffffffffffffffffffffffffffffffff160362000303578060025f828254620002f6919062000b3a565b92505081905550620003d4565b5f805f8573ffffffffffffffffffffffffffffffffffffffff1673ffffffffffffffffffffffffffffffffffffffff1681526020019081526020015f20549050818110156200038f578381836040517fe450d38c000000000000000000000000000000000000000000000000000000008152600401620003869392919062000b85565b60405180910390fd5b8181035f808673ffffffffffffffffffffffffffffffffffffffff1673ffffffffffffffffffffffffffffffffffffffff1681526020019081526020015f2081905550505b5f73ffffffffffffffffffffffffffffffffffffffff168273ffffffffffffffffffffffffffffffffffffffff16036200041d578060025f828254039250508190555062000467565b805f808473ffffffffffffffffffffffffffffffffffffffff1673ffffffffffffffffffffffffffffffffffffffff1681526020019081526020015f205f82825401925050819055505b8173ffffffffffffffffffffffffffffffffffffffff168373ffffffffffffffffffffffffffffffffffffffff167fddf252ad1be2c89b69c2b068fc378daa952ba7f163c4a11628f55a4df523b3ef83604051620004c6919062000bc0565b60405180910390a3505050565b5f81519050919050565b7f4e487b71000000000000000000000000000000000000000000000000000000005f52604160045260245ffd5b7f4e487b71000000000000000000000000000000000000000000000000000000005f52602260045260245ffd5b5f60028204905060018216806200054f57607f821691505b6020821081036200056557620005646200050a565b5b50919050565b5f819050815f5260205f209050919050565b5f6020601f8301049050919050565b5f82821b905092915050565b5f60088302620005c97fffffffffffffffffffffffffffffffffffffffffffffffffffffffffffffffff826200058c565b620005d586836200058c565b95508019841693508086168417925050509392505050565b5f819050919050565b5f819050919050565b5f6200061f620006196200061384620005ed565b620005f6565b620005ed565b9050919050565b5f819050919050565b6200063a83620005ff565b62000652620006498262000626565b84845462000598565b825550505050565b5f90565b620006686200065a565b620006758184846200062f565b505050565b5b818110156200069c57620006905f826200065e565b6001810190506200067b565b5050565b601f821115620006eb57620006b5816200056b565b620006c0846200057d565b81016020851015620006d0578190505b620006e8620006df856200057d565b8301826200067a565b50505b505050565b5f82821c905092915050565b5f6200070d5f1984600802620006f0565b1980831691505092915050565b5f620007278383620006fc565b9150826002028217905092915050565b6200074282620004d3565b67ffffffffffffffff8111156200075e576200075d620004dd565b5b6200076a825462000537565b62000777828285620006a0565b5f60209050601f831160018114620007ad575f841562000798578287015190505b620007a485826200071a565b86555062000813565b601f198416620007bd866200056b565b5f5b82811015620007e657848901518255600182019150602085019450602081019050620007bf565b8683101562000806578489015162000802601f891682620006fc565b8355505b6001600288020188555050505b505050505050565b7f4e487b71000000000000000000000000000000000000000000000000000000005f52601160045260245ffd5b5f8160011c9050919050565b5f808291508390505b6001851115620008a5578086048111156200087d576200087c6200081b565b5b60018516156200088d5780820291505b80810290506200089d8562000848565b94506200085d565b94509492505050565b5f82620008bf576001905062000991565b81620008ce575f905062000991565b8160018114620008e75760028114620008f25762000928565b600191505062000991565b60ff8411156200090757620009066200081b565b5b8360020a9150848211156200092157620009206200081b565b5b5062000991565b5060208310610133831016604e8410600b8410161715620009625782820a9050838111156200095c576200095b6200081b565b5b62000991565b62000971848484600162000854565b925090508184048111156200098b576200098a6200081b565b5b81810290505b9392505050565b5f60ff82169050919050565b5f620009b082620005ed565b9150620009bd8362000998565b9250620009ec7fffffffffffffffffffffffffffffffffffffffffffffffffffffffffffffffff8484620008ae565b905092915050565b5f62000a0082620005ed565b915062000a0d83620005ed565b925082820262000a1d81620005ed565b9150828204841483151762000a375762000a366200081b565b5b5092915050565b5f73ffffffffffffffffffffffffffffffffffffffff82169050919050565b5f62000a698262000a3e565b9050919050565b62000a7b8162000a5d565b82525050565b5f60208201905062000a965f83018462000a70565b92915050565b7f4e487b71000000000000000000000000000000000000000000000000000000005f52601260045260245ffd5b5f62000ad582620005ed565b915062000ae283620005ed565b92508262000af55762000af462000a9c565b5b828204905092915050565b5f62000b0c82620005ed565b915062000b1983620005ed565b925082820390508181111562000b345762000b336200081b565b5b92915050565b5f62000b4682620005ed565b915062000b5383620005ed565b925082820190508082111562000b6e5762000b6d6200081b565b5b92915050565b62000b7f81620005ed565b82525050565b5f60608201905062000b9a5f83018662000a70565b62000ba9602083018562000b74565b62000bb8604083018462000b74565b949350505050565b5f60208201905062000bd55f83018462000b74565b92915050565b61144f8062000be95f395ff3fe608060405234801561000f575f80fd5b5060043610610109575f3560e01c806370a08231116100a0578063acb2ad6f1161006f578063acb2ad6f146102b9578063adf57ac5146102d7578063b2b6bef5146102f5578063dd62ed3e14610313578063e74b981b1461034357610109565b806370a082311461021f5780638f02bb5b1461024f57806395d89b411461026b578063a9059cbb1461028957610109565b80632ff2e9dc116100dc5780632ff2e9dc146101a9578063313ce567146101c757806340c10f19146101e5578063469048401461020157610109565b806306fdde031461010d578063095ea7b31461012b57806318160ddd1461015b57806323b872dd14610179575b5f80fd5b61011561035f565b6040516101229190610efc565b60405180910390f35b61014560048036038101906101409190610fad565b6103ef565b6040516101529190611005565b60405180910390f35b610163610411565b604051610170919061102d565b60405180910390f35b610193600480360381019061018e9190611046565b61041a565b6040516101a09190611005565b60405180910390f35b6101b1610448565b6040516101be919061102d565b60405180910390f35b6101cf61044f565b6040516101dc91906110b1565b60405180910390f35b6101ff60048036038101906101fa9190610fad565b610457565b005b610209610465565b60405161021691906110d9565b60405180910390f35b610239600480360381019061023491906110f2565b61048a565b604051610246919061102d565b60405180910390f35b6102696004803603810190610264919061111d565b6104cf565b005b610273610555565b6040516102809190610efc565b60405180910390f35b6102a3600480360381019061029e9190610fad565b6105e5565b6040516102b09190611005565b60405180910390f35b6102c1610607565b6040516102ce919061102d565b60405180910390f35b6102df61060d565b6040516102ec91906110b1565b60405180910390f35b6102fd610612565b60405161030a919061102d565b60405180910390f35b61032d60048036038101906103289190611148565b610618565b60405161033a919061102d565b60405180910390f35b61035d600480360381019061035891906110f2565b61069a565b005b60606003805461036e906111b3565b80601f016020809104026020016040519081016040528092919081815260200182805461039a906111b3565b80156103e55780601f106103bc576101008083540402835291602001916103e5565b820191905f5260205f20905b8154815290600101906020018083116103c857829003601f168201915b5050505050905090565b5f806103f9610782565b9050610406818585610789565b600191505092915050565b5f600254905090565b5f80610424610782565b905061043185828561079b565b61043c85858561082e565b60019150509392505050565b620f424081565b5f6006905090565b610461828261091e565b5050565b60065f9054906101000a900473ffffffffffffffffffffffffffffffffffffffff1681565b5f805f8373ffffffffffffffffffffffffffffffffffffffff1673ffffffffffffffffffffffffffffffffffffffff1681526020019081526020015f20549050919050565b6103e8811115610514576040517f08c379a000000000000000000000000000000000000000000000000000000000815260040161050b9061122d565b60405180910390fd5b806005819055507ff9f635b7cf851af6071aaf78ef8a5f752dc52f19d556fea4512b0c2ad4baea728160405161054a919061102d565b60405180910390a150565b606060048054610564906111b3565b80601f0160208091040260200160405190810160405280929190818152602001828054610590906111b3565b80156105db5780601f106105b2576101008083540402835291602001916105db565b820191905f5260205f20905b8154815290600101906020018083116105be57829003601f168201915b5050505050905090565b5f806105ef610782565b90506105fc81858561082e565b600191505092915050565b60055481565b600681565b6103e881565b5f60015f8473ffffffffffffffffffffffffffffffffffffffff1673ffffffffffffffffffffffffffffffffffffffff1681526020019081526020015f205f8373ffffffffffffffffffffffffffffffffffffffff1673ffffffffffffffffffffffffffffffffffffffff1681526020019081526020015f2054905092915050565b5f73ffffffffffffffffffffffffffffffffffffffff168173ffffffffffffffffffffffffffffffffffffffff1603610708576040517f08c379a00000000000000000000000000000000000000000000000000000000081526004016106ff90611295565b60405180910390fd5b8060065f6101000a81548173ffffffffffffffffffffffffffffffffffffffff021916908373ffffffffffffffffffffffffffffffffffffffff1602179055507f7a7b5a0a132f9e0581eb8527f66eae9ee89c2a3e79d4ac7e41a1f1f4d48a7fc28160405161077791906110d9565b60405180910390a150565b5f33905090565b610796838383600161099d565b505050565b5f6107a68484610618565b90507fffffffffffffffffffffffffffffffffffffffffffffffffffffffffffffffff8110156108285781811015610819578281836040517ffb8f41b2000000000000000000000000000000000000000000000000000000008152600401610810939291906112b3565b60405180910390fd5b61082784848484035f61099d565b5b50505050565b5f73ffffffffffffffffffffffffffffffffffffffff168373ffffffffffffffffffffffffffffffffffffffff160361089e575f6040517f96c6fd1e00000000000000000000000000000000000000000000000000000000815260040161089591906110d9565b60405180910390fd5b5f73ffffffffffffffffffffffffffffffffffffffff168273ffffffffffffffffffffffffffffffffffffffff160361090e575f6040517fec442f0500000000000000000000000000000000000000000000000000000000815260040161090591906110d9565b60405180910390fd5b610919838383610b6c565b505050565b5f73ffffffffffffffffffffffffffffffffffffffff168273ffffffffffffffffffffffffffffffffffffffff160361098e575f6040517fec442f0500000000000000000000000000000000000000000000000000000000815260040161098591906110d9565b60405180910390fd5b6109995f8383610b6c565b5050565b5f73ffffffffffffffffffffffffffffffffffffffff168473ffffffffffffffffffffffffffffffffffffffff1603610a0d575f6040517fe602df05000000000000000000000000000000000000000000000000000000008152600401610a0491906110d9565b60405180910390fd5b5f73ffffffffffffffffffffffffffffffffffffffff168373ffffffffffffffffffffffffffffffffffffffff1603610a7d575f6040517f94280d62000000000000000000000000000000000000000000000000000000008152600401610a7491906110d9565b60405180910390fd5b8160015f8673ffffffffffffffffffffffffffffffffffffffff1673ffffffffffffffffffffffffffffffffffffffff1681526020019081526020015f205f8573ffffffffffffffffffffffffffffffffffffffff1673ffffffffffffffffffffffffffffffffffffffff1681526020019081526020015f20819055508015610b66578273ffffffffffffffffffffffffffffffffffffffff168473ffffffffffffffffffffffffffffffffffffffff167f8c5be1e5ebec7d5bd14f71427d1e84f3dd0314c0f7b2291e5b200ac8c7c3b92584604051610b5d919061102d565b60405180910390a35b50505050565b5f73ffffffffffffffffffffffffffffffffffffffff168373ffffffffffffffffffffffffffffffffffffffff1614158015610bd457505f73ffffffffffffffffffffffffffffffffffffffff168273ffffffffffffffffffffffffffffffffffffffff1614155b8015610be157505f600554115b15610c49575f61271060055483610bf89190611315565b610c029190611383565b90505f811115610c4757610c388460065f9054906101000a900473ffffffffffffffffffffffffffffffffffffffff1683610c59565b8082610c4491906113b3565b91505b505b610c54838383610c59565b505050565b5f73ffffffffffffffffffffffffffffffffffffffff168373ffffffffffffffffffffffffffffffffffffffff1603610ca9578060025f828254610c9d91906113e6565b92505081905550610d77565b5f805f8573ffffffffffffffffffffffffffffffffffffffff1673ffffffffffffffffffffffffffffffffffffffff1681526020019081526020015f2054905081811015610d32578381836040517fe450d38c000000000000000000000000000000000000000000000000000000008152600401610d29939291906112b3565b60405180910390fd5b8181035f808673ffffffffffffffffffffffffffffffffffffffff1673ffffffffffffffffffffffffffffffffffffffff1681526020019081526020015f2081905550505b5f73ffffffffffffffffffffffffffffffffffffffff168273ffffffffffffffffffffffffffffffffffffffff1603610dbe578060025f8282540392505081905550610e08565b805f808473ffffffffffffffffffffffffffffffffffffffff1673ffffffffffffffffffffffffffffffffffffffff1681526020019081526020015f205f82825401925050819055505b8173ffffffffffffffffffffffffffffffffffffffff168373ffffffffffffffffffffffffffffffffffffffff167fddf252ad1be2c89b69c2b068fc378daa952ba7f163c4a11628f55a4df523b3ef83604051610e65919061102d565b60405180910390a3505050565b5f81519050919050565b5f82825260208201905092915050565b5f5b83811015610ea9578082015181840152602081019050610e8e565b5f8484015250505050565b5f601f19601f8301169050919050565b5f610ece82610e72565b610ed88185610e7c565b9350610ee8818560208601610e8c565b610ef181610eb4565b840191505092915050565b5f6020820190508181035f830152610f148184610ec4565b905092915050565b5f80fd5b5f73ffffffffffffffffffffffffffffffffffffffff82169050919050565b5f610f4982610f20565b9050919050565b610f5981610f3f565b8114610f63575f80fd5b50565b5f81359050610f7481610f50565b92915050565b5f819050919050565b610f8c81610f7a565b8114610f96575f80fd5b50565b5f81359050610fa781610f83565b92915050565b5f8060408385031215610fc357610fc2610f1c565b5b5f610fd085828601610f66565b9250506020610fe185828601610f99565b9150509250929050565b5f8115159050919050565b610fff81610feb565b82525050565b5f6020820190506110185f830184610ff6565b92915050565b61102781610f7a565b82525050565b5f6020820190506110405f83018461101e565b92915050565b5f805f6060848603121561105d5761105c610f1c565b5b5f61106a86828701610f66565b935050602061107b86828701610f66565b925050604061108c86828701610f99565b9150509250925092565b5f60ff82169050919050565b6110ab81611096565b82525050565b5f6020820190506110c45f8301846110a2565b92915050565b6110d381610f3f565b82525050565b5f6020820190506110ec5f8301846110ca565b92915050565b5f6020828403121561110757611106610f1c565b5b5f61111484828501610f66565b91505092915050565b5f6020828403121561113257611131610f1c565b5b5f61113f84828501610f99565b91505092915050565b5f806040838503121561115e5761115d610f1c565b5b5f61116b85828601610f66565b925050602061117c85828601610f66565b9150509250929050565b7f4e487b71000000000000000000000000000000000000000000000000000000005f52602260045260245ffd5b5f60028204905060018216806111ca57607f821691505b6020821081036111dd576111dc611186565b5b50919050565b7f46656520746f6f206869676800000000000000000000000000000000000000005f82015250565b5f611217600c83610e7c565b9150611222826111e3565b602082019050919050565b5f6020820190508181035f8301526112448161120b565b9050919050565b7f496e76616c696420726563697069656e740000000000000000000000000000005f82015250565b5f61127f601183610e7c565b915061128a8261124b565b602082019050919050565b5f6020820190508181035f8301526112ac81611273565b9050919050565b5f6060820190506112c65f8301866110ca565b6112d3602083018561101e565b6112e0604083018461101e565b949350505050565b7f4e487b71000000000000000000000000000000000000000000000000000000005f52601160045260245ffd5b5f61131f82610f7a565b915061132a83610f7a565b925082820261133881610f7a565b9150828204841483151761134f5761134e6112e8565b5b5092915050565b7f4e487b71000000000000000000000000000000000000000000000000000000005f52601260045260245ffd5b5f61138d82610f7a565b915061139883610f7a565b9250826113a8576113a7611356565b5b828204905092915050565b5f6113bd82610f7a565b91506113c883610f7a565b92508282039050818111156113e0576113df6112e8565b5b92915050565b5f6113f082610f7a565b91506113fb83610f7a565b9250828201905080821115611413576114126112e8565b5b9291505056fea26469706673582212200e9530dafb0ce8739169421e587740908e74e46dbadf6b1ac2d420b8b891d3ce64736f6c63430008140033a26469706673582212202656529a9744a28d65eafa43da6db70d6ae5148e1dd28e741bcd83b1a5e6c2fc64736f6c63430008140033","linkReferences":{}},"methodIdentifiers":{"deployAllTokens()":"58ace260","deployToken(string)":"8c760573"},"id":41}